{
  "_format": "hh-sol-artifact-1",
  "contractName": "BenzToken",
  "sourceName": "contracts/BenzToken.sol",
  "abi": [
    {
      "inputs": [
        {
          "internalType": "uint256",
          "name": "_cost",
          "type": "uint256"
        },
        {
          "internalType": "uint256",
          "name": "_validityPeriodInDays",
          "type": "uint256"
        },
        {
          "internalType": "uint8",
          "name": "_maxSupply",
          "type": "uint8"
        }
      ],
      "stateMutability": "nonpayable",
      "type": "constructor"
    },
    {
      "anonymous": false,
      "inputs": [
        {
          "indexed": true,
          "internalType": "address",
          "name": "userAddress",
          "type": "address"
        }
      ],
      "name": "AddressLogged",
      "type": "event"
    },
    {
      "anonymous": false,
      "inputs": [
        {
          "indexed": true,
          "internalType": "address",
          "name": "owner",
          "type": "address"
        },
        {
          "indexed": true,
          "internalType": "address",
          "name": "approved",
          "type": "address"
        },
        {
          "indexed": true,
          "internalType": "uint256",
          "name": "tokenId",
          "type": "uint256"
        }
      ],
      "name": "Approval",
      "type": "event"
    },
    {
      "anonymous": false,
      "inputs": [
        {
          "indexed": true,
          "internalType": "address",
          "name": "owner",
          "type": "address"
        },
        {
          "indexed": true,
          "internalType": "address",
          "name": "operator",
          "type": "address"
        },
        {
          "indexed": false,
          "internalType": "bool",
          "name": "approved",
          "type": "bool"
        }
      ],
      "name": "ApprovalForAll",
      "type": "event"
    },
    {
      "anonymous": false,
      "inputs": [
        {
          "indexed": false,
          "internalType": "uint256",
          "name": "_fromTokenId",
          "type": "uint256"
        },
        {
          "indexed": false,
          "internalType": "uint256",
          "name": "_toTokenId",
          "type": "uint256"
        }
      ],
      "name": "BatchMetadataUpdate",
      "type": "event"
    },
    {
      "anonymous": false,
      "inputs": [
        {
          "indexed": false,
          "internalType": "string",
          "name": "message",
          "type": "string"
        }
      ],
      "name": "LogMessage",
      "type": "event"
    },
    {
      "anonymous": false,
      "inputs": [
        {
          "indexed": false,
          "internalType": "uint256",
          "name": "id",
          "type": "uint256"
        },
        {
          "indexed": false,
          "internalType": "string",
          "name": "value",
          "type": "string"
        }
      ],
      "name": "LogObject",
      "type": "event"
    },
    {
      "anonymous": false,
      "inputs": [
        {
          "indexed": false,
          "internalType": "uint256",
          "name": "value",
          "type": "uint256"
        }
      ],
      "name": "LogValue",
      "type": "event"
    },
    {
      "anonymous": false,
      "inputs": [
        {
          "indexed": false,
          "internalType": "uint256",
          "name": "_tokenId",
          "type": "uint256"
        }
      ],
      "name": "MetadataUpdate",
      "type": "event"
    },
    {
      "anonymous": false,
      "inputs": [
        {
          "indexed": true,
          "internalType": "address",
          "name": "previousOwner",
          "type": "address"
        },
        {
          "indexed": true,
          "internalType": "address",
          "name": "newOwner",
          "type": "address"
        }
      ],
      "name": "OwnershipTransferred",
      "type": "event"
    },
    {
      "anonymous": false,
      "inputs": [
        {
          "indexed": true,
          "internalType": "address",
          "name": "from",
          "type": "address"
        },
        {
          "indexed": true,
          "internalType": "address",
          "name": "to",
          "type": "address"
        },
        {
          "indexed": true,
          "internalType": "uint256",
          "name": "tokenId",
          "type": "uint256"
        }
      ],
      "name": "Transfer",
      "type": "event"
    },
    {
      "inputs": [
        {
          "internalType": "address",
          "name": "to",
          "type": "address"
        },
        {
          "internalType": "uint256",
          "name": "tokenId",
          "type": "uint256"
        }
      ],
      "name": "approve",
      "outputs": [],
      "stateMutability": "nonpayable",
      "type": "function"
    },
    {
      "inputs": [
        {
          "internalType": "address",
          "name": "owner",
          "type": "address"
        }
      ],
      "name": "balanceOf",
      "outputs": [
        {
          "internalType": "uint256",
          "name": "",
          "type": "uint256"
        }
      ],
      "stateMutability": "view",
      "type": "function"
    },
    {
      "inputs": [],
      "name": "cost",
      "outputs": [
        {
          "internalType": "uint256",
          "name": "",
          "type": "uint256"
        }
      ],
      "stateMutability": "view",
      "type": "function"
    },
    {
      "inputs": [
        {
          "internalType": "uint256",
          "name": "tokenId",
          "type": "uint256"
        }
      ],
      "name": "getApproved",
      "outputs": [
        {
          "internalType": "address",
          "name": "",
          "type": "address"
        }
      ],
      "stateMutability": "view",
      "type": "function"
    },
    {
      "inputs": [
        {
          "internalType": "address",
          "name": "wallet",
          "type": "address"
        }
      ],
      "name": "getOwnedTokens",
      "outputs": [
        {
          "internalType": "uint256[]",
          "name": "",
          "type": "uint256[]"
        }
      ],
      "stateMutability": "view",
      "type": "function"
    },
    {
      "inputs": [],
      "name": "getValidityPeriod",
      "outputs": [
        {
          "internalType": "uint256",
          "name": "",
          "type": "uint256"
        }
      ],
      "stateMutability": "view",
      "type": "function"
    },
    {
      "inputs": [
        {
          "internalType": "address",
          "name": "owner",
          "type": "address"
        },
        {
          "internalType": "address",
          "name": "operator",
          "type": "address"
        }
      ],
      "name": "isApprovedForAll",
      "outputs": [
        {
          "internalType": "bool",
          "name": "",
          "type": "bool"
        }
      ],
      "stateMutability": "view",
      "type": "function"
    },
    {
      "inputs": [
        {
          "internalType": "string",
          "name": "uri",
          "type": "string"
        }
      ],
      "name": "isContentOwned",
      "outputs": [
        {
          "internalType": "bool",
          "name": "",
          "type": "bool"
        }
      ],
      "stateMutability": "view",
      "type": "function"
    },
    {
      "inputs": [],
      "name": "maxSupply",
      "outputs": [
        {
          "internalType": "uint8",
          "name": "",
          "type": "uint8"
        }
      ],
      "stateMutability": "view",
      "type": "function"
    },
    {
      "inputs": [],
      "name": "mintStartDate",
      "outputs": [
        {
          "internalType": "uint256",
          "name": "",
          "type": "uint256"
        }
      ],
      "stateMutability": "view",
      "type": "function"
    },
    {
      "inputs": [],
      "name": "name",
      "outputs": [
        {
          "internalType": "string",
          "name": "",
          "type": "string"
        }
      ],
      "stateMutability": "view",
      "type": "function"
    },
    {
      "inputs": [],
      "name": "owner",
      "outputs": [
        {
          "internalType": "address",
          "name": "",
          "type": "address"
        }
      ],
      "stateMutability": "view",
      "type": "function"
    },
    {
      "inputs": [
        {
          "internalType": "uint256",
          "name": "tokenId",
          "type": "uint256"
        }
      ],
      "name": "ownerOf",
      "outputs": [
        {
          "internalType": "address",
          "name": "",
          "type": "address"
        }
      ],
      "stateMutability": "view",
      "type": "function"
    },
    {
      "inputs": [
        {
          "internalType": "address",
          "name": "recipient",
          "type": "address"
        },
        {
          "internalType": "string",
          "name": "metadataURI",
          "type": "string"
        }
      ],
      "name": "payToMint",
      "outputs": [
        {
          "internalType": "uint256",
          "name": "",
          "type": "uint256"
        }
      ],
      "stateMutability": "payable",
      "type": "function"
    },
    {
      "inputs": [],
      "name": "renounceOwnership",
      "outputs": [],
      "stateMutability": "nonpayable",
      "type": "function"
    },
    {
      "inputs": [
        {
          "internalType": "address",
          "name": "to",
          "type": "address"
        },
        {
          "internalType": "string",
          "name": "uri",
          "type": "string"
        }
      ],
      "name": "safeMint",
      "outputs": [],
      "stateMutability": "nonpayable",
      "type": "function"
    },
    {
      "inputs": [
        {
          "internalType": "address",
          "name": "from",
          "type": "address"
        },
        {
          "internalType": "address",
          "name": "to",
          "type": "address"
        },
        {
          "internalType": "uint256",
          "name": "tokenId",
          "type": "uint256"
        }
      ],
      "name": "safeTransferFrom",
      "outputs": [],
      "stateMutability": "nonpayable",
      "type": "function"
    },
    {
      "inputs": [
        {
          "internalType": "address",
          "name": "from",
          "type": "address"
        },
        {
          "internalType": "address",
          "name": "to",
          "type": "address"
        },
        {
          "internalType": "uint256",
          "name": "tokenId",
          "type": "uint256"
        },
        {
          "internalType": "bytes",
          "name": "data",
          "type": "bytes"
        }
      ],
      "name": "safeTransferFrom",
      "outputs": [],
      "stateMutability": "nonpayable",
      "type": "function"
    },
    {
      "inputs": [
        {
          "internalType": "address",
          "name": "operator",
          "type": "address"
        },
        {
          "internalType": "bool",
          "name": "approved",
          "type": "bool"
        }
      ],
      "name": "setApprovalForAll",
      "outputs": [],
      "stateMutability": "nonpayable",
      "type": "function"
    },
    {
      "inputs": [
        {
          "internalType": "bytes4",
          "name": "interfaceId",
          "type": "bytes4"
        }
      ],
      "name": "supportsInterface",
      "outputs": [
        {
          "internalType": "bool",
          "name": "",
          "type": "bool"
        }
      ],
      "stateMutability": "view",
      "type": "function"
    },
    {
      "inputs": [],
      "name": "symbol",
      "outputs": [
        {
          "internalType": "string",
          "name": "",
          "type": "string"
        }
      ],
      "stateMutability": "view",
      "type": "function"
    },
    {
      "inputs": [
        {
          "internalType": "uint256",
          "name": "tokenId",
          "type": "uint256"
        }
      ],
      "name": "tokenURI",
      "outputs": [
        {
          "internalType": "string",
          "name": "",
          "type": "string"
        }
      ],
      "stateMutability": "view",
      "type": "function"
    },
    {
      "inputs": [],
      "name": "totalSupply",
      "outputs": [
        {
          "internalType": "uint256",
          "name": "",
          "type": "uint256"
        }
      ],
      "stateMutability": "view",
      "type": "function"
    },
    {
      "inputs": [
        {
          "internalType": "address",
          "name": "from",
          "type": "address"
        },
        {
          "internalType": "address",
          "name": "to",
          "type": "address"
        },
        {
          "internalType": "uint256",
          "name": "tokenId",
          "type": "uint256"
        }
      ],
      "name": "transferFrom",
      "outputs": [],
      "stateMutability": "nonpayable",
      "type": "function"
    },
    {
      "inputs": [
        {
          "internalType": "address",
          "name": "newOwner",
          "type": "address"
        }
      ],
      "name": "transferOwnership",
      "outputs": [],
      "stateMutability": "nonpayable",
      "type": "function"
    },
    {
      "inputs": [],
      "name": "validityPeriodInDays",
      "outputs": [
        {
          "internalType": "uint256",
          "name": "",
          "type": "uint256"
        }
      ],
      "stateMutability": "view",
      "type": "function"
    }
  ],
  "bytecode": "0x60806040523480156200001157600080fd5b506040516200423a3803806200423a83398181016040528101906200003791906200032c565b6040518060400160405280600981526020017f42656e7a546f6b656e00000000000000000000000000000000000000000000008152506040518060400160405280600581526020017f424e5a544b0000000000000000000000000000000000000000000000000000008152508160009080519060200190620000bb929190620001fe565b508060019080519060200190620000d4929190620001fe565b505050620000f7620000eb6200013060201b60201c565b6200013860201b60201c565b42600e8190555080600c60006101000a81548160ff021916908360ff16021790555082600d8190555081600f81905550505050620003ed565b600033905090565b6000600760009054906101000a900473ffffffffffffffffffffffffffffffffffffffff16905081600760006101000a81548173ffffffffffffffffffffffffffffffffffffffff021916908373ffffffffffffffffffffffffffffffffffffffff1602179055508173ffffffffffffffffffffffffffffffffffffffff168173ffffffffffffffffffffffffffffffffffffffff167f8be0079c531659141344cd1fd0a4f28419497f9722a3daafe3b4186f6b6457e060405160405180910390a35050565b8280546200020c90620003b7565b90600052602060002090601f0160209004810192826200023057600085556200027c565b82601f106200024b57805160ff19168380011785556200027c565b828001600101855582156200027c579182015b828111156200027b5782518255916020019190600101906200025e565b5b5090506200028b91906200028f565b5090565b5b80821115620002aa57600081600090555060010162000290565b5090565b600080fd5b6000819050919050565b620002c881620002b3565b8114620002d457600080fd5b50565b600081519050620002e881620002bd565b92915050565b600060ff82169050919050565b6200030681620002ee565b81146200031257600080fd5b50565b6000815190506200032681620002fb565b92915050565b600080600060608486031215620003485762000347620002ae565b5b60006200035886828701620002d7565b93505060206200036b86828701620002d7565b92505060406200037e8682870162000315565b9150509250925092565b7f4e487b7100000000000000000000000000000000000000000000000000000000600052602260045260246000fd5b60006002820490506001821680620003d057607f821691505b60208210811415620003e757620003e662000388565b5b50919050565b613e3d80620003fd6000396000f3fe6080604052600436106101815760003560e01c8063715018a6116100d1578063b88d4fde1161008a578063d5abeb0111610064578063d5abeb0114610589578063d9d61655146105b4578063e985e9c5146105f1578063f2fde38b1461062e57610181565b8063b88d4fde146104fa578063c87b56dd14610523578063d204c45e1461056057610181565b8063715018a6146103fc5780637528d4c3146104135780638da5cb5b1461043e57806395d89b41146104695780639f1cabc614610494578063a22cb465146104d157610181565b806318160ddd1161013e57806349b5fe1f1161011857806349b5fe1f14610327578063615fd9e2146103525780636352211e1461038257806370a08231146103bf57610181565b806318160ddd146102aa57806323b872dd146102d557806342842e0e146102fe57610181565b806301ffc9a71461018657806306fdde03146101c3578063081812fc146101ee578063095ea7b31461022b5780630e4e0c651461025457806313faede61461027f575b600080fd5b34801561019257600080fd5b506101ad60048036038101906101a8919061284e565b610657565b6040516101ba9190612896565b60405180910390f35b3480156101cf57600080fd5b506101d8610669565b6040516101e5919061294a565b60405180910390f35b3480156101fa57600080fd5b50610215600480360381019061021091906129a2565b6106fb565b6040516102229190612a10565b60405180910390f35b34801561023757600080fd5b50610252600480360381019061024d9190612a57565b610741565b005b34801561026057600080fd5b50610269610859565b6040516102769190612aa6565b60405180910390f35b34801561028b57600080fd5b50610294610863565b6040516102a19190612aa6565b60405180910390f35b3480156102b657600080fd5b506102bf610869565b6040516102cc9190612aa6565b60405180910390f35b3480156102e157600080fd5b506102fc60048036038101906102f79190612ac1565b61087a565b005b34801561030a57600080fd5b5061032560048036038101906103209190612ac1565b6108da565b005b34801561033357600080fd5b5061033c6108fa565b6040516103499190612aa6565b60405180910390f35b61036c60048036038101906103679190612c49565b610900565b6040516103799190612aa6565b60405180910390f35b34801561038e57600080fd5b506103a960048036038101906103a491906129a2565b610c83565b6040516103b69190612a10565b60405180910390f35b3480156103cb57600080fd5b506103e660048036038101906103e19190612ca5565b610d0a565b6040516103f39190612aa6565b60405180910390f35b34801561040857600080fd5b50610411610dc2565b005b34801561041f57600080fd5b50610428610dd6565b6040516104359190612aa6565b60405180910390f35b34801561044a57600080fd5b50610453610ddc565b6040516104609190612a10565b60405180910390f35b34801561047557600080fd5b5061047e610e06565b60405161048b919061294a565b60405180910390f35b3480156104a057600080fd5b506104bb60048036038101906104b69190612cd2565b610e98565b6040516104c89190612896565b60405180910390f35b3480156104dd57600080fd5b506104f860048036038101906104f39190612d47565b610ed3565b005b34801561050657600080fd5b50610521600480360381019061051c9190612e28565b610ee9565b005b34801561052f57600080fd5b5061054a600480360381019061054591906129a2565b610f4b565b604051610557919061294a565b60405180910390f35b34801561056c57600080fd5b5061058760048036038101906105829190612c49565b610f5d565b005b34801561059557600080fd5b5061059e6110cd565b6040516105ab9190612ec7565b60405180910390f35b3480156105c057600080fd5b506105db60048036038101906105d69190612ca5565b6110e0565b6040516105e89190612fa0565b60405180910390f35b3480156105fd57600080fd5b5061061860048036038101906106139190612fc2565b611253565b6040516106259190612896565b60405180910390f35b34801561063a57600080fd5b5061065560048036038101906106509190612ca5565b6112e7565b005b60006106628261136b565b9050919050565b60606000805461067890613031565b80601f01602080910402602001604051908101604052809291908181526020018280546106a490613031565b80156106f15780601f106106c6576101008083540402835291602001916106f1565b820191906000526020600020905b8154815290600101906020018083116106d457829003601f168201915b5050505050905090565b6000610706826113cc565b6004600083815260200190815260200160002060009054906101000a900473ffffffffffffffffffffffffffffffffffffffff169050919050565b600061074c82610c83565b90508073ffffffffffffffffffffffffffffffffffffffff168373ffffffffffffffffffffffffffffffffffffffff1614156107bd576040517f08c379a00000000000000000000000000000000000000000000000000000000081526004016107b4906130d5565b60405180910390fd5b8073ffffffffffffffffffffffffffffffffffffffff166107dc611417565b73ffffffffffffffffffffffffffffffffffffffff16148061080b575061080a81610805611417565b611253565b5b61084a576040517f08c379a000000000000000000000000000000000000000000000000000000000815260040161084190613167565b60405180910390fd5b610854838361141f565b505050565b6000600f54905090565b600d5481565b600061087560086114d8565b905090565b61088b610885611417565b826114e6565b6108ca576040517f08c379a00000000000000000000000000000000000000000000000000000000081526004016108c1906131f9565b60405180910390fd5b6108d583838361157b565b505050565b6108f583838360405180602001604052806000815250610ee9565b505050565b600e5481565b600062015180600f546109139190613248565b600e5461092091906132a2565b4210610961576040517f08c379a000000000000000000000000000000000000000000000000000000000815260040161095890613344565b60405180910390fd5b600c60009054906101000a900460ff1660ff1661097c610869565b106109bc576040517f08c379a00000000000000000000000000000000000000000000000000000000081526004016109b3906133b0565b60405180910390fd5b60016009836040516109ce919061340c565b908152602001604051809103902060009054906101000a900460ff1660ff161415610a2e576040517f08c379a0000000000000000000000000000000000000000000000000000000008152600401610a259061346f565b60405180910390fd5b600d54341015610a73576040517f08c379a0000000000000000000000000000000000000000000000000000000008152600401610a6a906134db565b60405180910390fd5b6000610a7f60086114d8565b9050610a8b6008611875565b6001600984604051610a9d919061340c565b908152602001604051809103902060006101000a81548160ff021916908360ff160217905550610acd848261188b565b610ad78184611aa9565b610b2881600a60008773ffffffffffffffffffffffffffffffffffffffff1673ffffffffffffffffffffffffffffffffffffffff168152602001908152602001600020611b5490919063ffffffff16565b507f96561394bac381230de4649200e8831afcab1f451881bbade9ef209f6dd30480604051610b5690613547565b60405180910390a17ffcf771399d75a67a6d0e730ae98d34c40b6bfe6ebf8053b98ddf4da8c270625081604051610b8d9190612aa6565b60405180910390a17f96561394bac381230de4649200e8831afcab1f451881bbade9ef209f6dd30480604051610bc2906135b3565b60405180910390a18373ffffffffffffffffffffffffffffffffffffffff167f36341629533027a87dbcdf4df3be2c81bf2b9e23f8d33eb2b6903f9b873a9fe860405160405180910390a27f96561394bac381230de4649200e8831afcab1f451881bbade9ef209f6dd30480604051610c3a9061361f565b60405180910390a17f96561394bac381230de4649200e8831afcab1f451881bbade9ef209f6dd3048083604051610c71919061294a565b60405180910390a18091505092915050565b600080610c8f83611b6e565b9050600073ffffffffffffffffffffffffffffffffffffffff168173ffffffffffffffffffffffffffffffffffffffff161415610d01576040517f08c379a0000000000000000000000000000000000000000000000000000000008152600401610cf89061368b565b60405180910390fd5b80915050919050565b60008073ffffffffffffffffffffffffffffffffffffffff168273ffffffffffffffffffffffffffffffffffffffff161415610d7b576040517f08c379a0000000000000000000000000000000000000000000000000000000008152600401610d729061371d565b60405180910390fd5b600360008373ffffffffffffffffffffffffffffffffffffffff1673ffffffffffffffffffffffffffffffffffffffff168152602001908152602001600020549050919050565b610dca611bab565b610dd46000611c29565b565b600f5481565b6000600760009054906101000a900473ffffffffffffffffffffffffffffffffffffffff16905090565b606060018054610e1590613031565b80601f0160208091040260200160405190810160405280929190818152602001828054610e4190613031565b8015610e8e5780601f10610e6357610100808354040283529160200191610e8e565b820191906000526020600020905b815481529060010190602001808311610e7157829003601f168201915b5050505050905090565b60006001600983604051610eac919061340c565b908152602001604051809103902060009054906101000a900460ff1660ff16149050919050565b610ee5610ede611417565b8383611cef565b5050565b610efa610ef4611417565b836114e6565b610f39576040517f08c379a0000000000000000000000000000000000000000000000000000000008152600401610f30906131f9565b60405180910390fd5b610f4584848484611e5c565b50505050565b6060610f5682611eb8565b9050919050565b610f65611bab565b600b60008373ffffffffffffffffffffffffffffffffffffffff1673ffffffffffffffffffffffffffffffffffffffff16815260200190815260200160002060009054906101000a900460ff1615610ff2576040517f08c379a0000000000000000000000000000000000000000000000000000000008152600401610fe9906137af565b60405180910390fd5b6001600b60008473ffffffffffffffffffffffffffffffffffffffff1673ffffffffffffffffffffffffffffffffffffffff16815260200190815260200160002060006101000a81548160ff021916908315150217905550600061105660086114d8565b90506110626008611875565b61106c8382611fcb565b6110768183611aa9565b6110c781600a60008673ffffffffffffffffffffffffffffffffffffffff1673ffffffffffffffffffffffffffffffffffffffff168152602001908152602001600020611b5490919063ffffffff16565b50505050565b600c60009054906101000a900460ff1681565b6060600061112b600a60008573ffffffffffffffffffffffffffffffffffffffff1673ffffffffffffffffffffffffffffffffffffffff168152602001908152602001600020611fe9565b67ffffffffffffffff81111561114457611143612b1e565b5b6040519080825280602002602001820160405280156111725781602001602082028036833780820191505090505b50905060005b6111bf600a60008673ffffffffffffffffffffffffffffffffffffffff1673ffffffffffffffffffffffffffffffffffffffff168152602001908152602001600020611fe9565b8110156112495761121781600a60008773ffffffffffffffffffffffffffffffffffffffff1673ffffffffffffffffffffffffffffffffffffffff168152602001908152602001600020611ffe90919063ffffffff16565b82828151811061122a576112296137cf565b5b6020026020010181815250508080611241906137fe565b915050611178565b5080915050919050565b6000600560008473ffffffffffffffffffffffffffffffffffffffff1673ffffffffffffffffffffffffffffffffffffffff16815260200190815260200160002060008373ffffffffffffffffffffffffffffffffffffffff1673ffffffffffffffffffffffffffffffffffffffff16815260200190815260200160002060009054906101000a900460ff16905092915050565b6112ef611bab565b600073ffffffffffffffffffffffffffffffffffffffff168173ffffffffffffffffffffffffffffffffffffffff16141561135f576040517f08c379a0000000000000000000000000000000000000000000000000000000008152600401611356906138b9565b60405180910390fd5b61136881611c29565b50565b6000634906490660e01b7bffffffffffffffffffffffffffffffffffffffffffffffffffffffff1916827bffffffffffffffffffffffffffffffffffffffffffffffffffffffff191614806113c557506113c482612018565b5b9050919050565b6113d5816120fa565b611414576040517f08c379a000000000000000000000000000000000000000000000000000000000815260040161140b9061368b565b60405180910390fd5b50565b600033905090565b816004600083815260200190815260200160002060006101000a81548173ffffffffffffffffffffffffffffffffffffffff021916908373ffffffffffffffffffffffffffffffffffffffff160217905550808273ffffffffffffffffffffffffffffffffffffffff1661149283610c83565b73ffffffffffffffffffffffffffffffffffffffff167f8c5be1e5ebec7d5bd14f71427d1e84f3dd0314c0f7b2291e5b200ac8c7c3b92560405160405180910390a45050565b600081600001549050919050565b6000806114f283610c83565b90508073ffffffffffffffffffffffffffffffffffffffff168473ffffffffffffffffffffffffffffffffffffffff16148061153457506115338185611253565b5b8061157257508373ffffffffffffffffffffffffffffffffffffffff1661155a846106fb565b73ffffffffffffffffffffffffffffffffffffffff16145b91505092915050565b8273ffffffffffffffffffffffffffffffffffffffff1661159b82610c83565b73ffffffffffffffffffffffffffffffffffffffff16146115f1576040517f08c379a00000000000000000000000000000000000000000000000000000000081526004016115e89061394b565b60405180910390fd5b600073ffffffffffffffffffffffffffffffffffffffff168273ffffffffffffffffffffffffffffffffffffffff161415611661576040517f08c379a0000000000000000000000000000000000000000000000000000000008152600401611658906139dd565b60405180910390fd5b61166e838383600161213b565b8273ffffffffffffffffffffffffffffffffffffffff1661168e82610c83565b73ffffffffffffffffffffffffffffffffffffffff16146116e4576040517f08c379a00000000000000000000000000000000000000000000000000000000081526004016116db9061394b565b60405180910390fd5b6004600082815260200190815260200160002060006101000a81549073ffffffffffffffffffffffffffffffffffffffff02191690556001600360008573ffffffffffffffffffffffffffffffffffffffff1673ffffffffffffffffffffffffffffffffffffffff168152602001908152602001600020600082825403925050819055506001600360008473ffffffffffffffffffffffffffffffffffffffff1673ffffffffffffffffffffffffffffffffffffffff16815260200190815260200160002060008282540192505081905550816002600083815260200190815260200160002060006101000a81548173ffffffffffffffffffffffffffffffffffffffff021916908373ffffffffffffffffffffffffffffffffffffffff160217905550808273ffffffffffffffffffffffffffffffffffffffff168473ffffffffffffffffffffffffffffffffffffffff167fddf252ad1be2c89b69c2b068fc378daa952ba7f163c4a11628f55a4df523b3ef60405160405180910390a46118708383836001612141565b505050565b6001816000016000828254019250508190555050565b600073ffffffffffffffffffffffffffffffffffffffff168273ffffffffffffffffffffffffffffffffffffffff1614156118fb576040517f08c379a00000000000000000000000000000000000000000000000000000000081526004016118f290613a49565b60405180910390fd5b611904816120fa565b15611944576040517f08c379a000000000000000000000000000000000000000000000000000000000815260040161193b90613ab5565b60405180910390fd5b61195260008383600161213b565b61195b816120fa565b1561199b576040517f08c379a000000000000000000000000000000000000000000000000000000000815260040161199290613ab5565b60405180910390fd5b6001600360008473ffffffffffffffffffffffffffffffffffffffff1673ffffffffffffffffffffffffffffffffffffffff16815260200190815260200160002060008282540192505081905550816002600083815260200190815260200160002060006101000a81548173ffffffffffffffffffffffffffffffffffffffff021916908373ffffffffffffffffffffffffffffffffffffffff160217905550808273ffffffffffffffffffffffffffffffffffffffff16600073ffffffffffffffffffffffffffffffffffffffff167fddf252ad1be2c89b69c2b068fc378daa952ba7f163c4a11628f55a4df523b3ef60405160405180910390a4611aa5600083836001612141565b5050565b611ab2826120fa565b611af1576040517f08c379a0000000000000000000000000000000000000000000000000000000008152600401611ae890613b47565b60405180910390fd5b80600660008481526020019081526020016000209080519060200190611b1892919061273f565b507ff8e1a15aba9398e019f0b49df1a4fde98ee17ae345cb5f6b5e2c27f5033e8ce782604051611b489190612aa6565b60405180910390a15050565b6000611b66836000018360001b612147565b905092915050565b60006002600083815260200190815260200160002060009054906101000a900473ffffffffffffffffffffffffffffffffffffffff169050919050565b611bb3611417565b73ffffffffffffffffffffffffffffffffffffffff16611bd1610ddc565b73ffffffffffffffffffffffffffffffffffffffff1614611c27576040517f08c379a0000000000000000000000000000000000000000000000000000000008152600401611c1e90613bb3565b60405180910390fd5b565b6000600760009054906101000a900473ffffffffffffffffffffffffffffffffffffffff16905081600760006101000a81548173ffffffffffffffffffffffffffffffffffffffff021916908373ffffffffffffffffffffffffffffffffffffffff1602179055508173ffffffffffffffffffffffffffffffffffffffff168173ffffffffffffffffffffffffffffffffffffffff167f8be0079c531659141344cd1fd0a4f28419497f9722a3daafe3b4186f6b6457e060405160405180910390a35050565b8173ffffffffffffffffffffffffffffffffffffffff168373ffffffffffffffffffffffffffffffffffffffff161415611d5e576040517f08c379a0000000000000000000000000000000000000000000000000000000008152600401611d5590613c1f565b60405180910390fd5b80600560008573ffffffffffffffffffffffffffffffffffffffff1673ffffffffffffffffffffffffffffffffffffffff16815260200190815260200160002060008473ffffffffffffffffffffffffffffffffffffffff1673ffffffffffffffffffffffffffffffffffffffff16815260200190815260200160002060006101000a81548160ff0219169083151502179055508173ffffffffffffffffffffffffffffffffffffffff168373ffffffffffffffffffffffffffffffffffffffff167f17307eab39ab6107e8899845ad3d59bd9653f200f220920489ca2b5937696c3183604051611e4f9190612896565b60405180910390a3505050565b611e6784848461157b565b611e73848484846121b7565b611eb2576040517f08c379a0000000000000000000000000000000000000000000000000000000008152600401611ea990613cb1565b60405180910390fd5b50505050565b6060611ec3826113cc565b6000600660008481526020019081526020016000208054611ee390613031565b80601f0160208091040260200160405190810160405280929190818152602001828054611f0f90613031565b8015611f5c5780601f10611f3157610100808354040283529160200191611f5c565b820191906000526020600020905b815481529060010190602001808311611f3f57829003601f168201915b505050505090506000611f6d61234e565b9050600081511415611f83578192505050611fc6565b600082511115611fb8578082604051602001611fa0929190613cd1565b60405160208183030381529060405292505050611fc6565b611fc184612365565b925050505b919050565b611fe58282604051806020016040528060008152506123cd565b5050565b6000611ff782600001612428565b9050919050565b600061200d8360000183612439565b60001c905092915050565b60007f80ac58cd000000000000000000000000000000000000000000000000000000007bffffffffffffffffffffffffffffffffffffffffffffffffffffffff1916827bffffffffffffffffffffffffffffffffffffffffffffffffffffffff191614806120e357507f5b5e139f000000000000000000000000000000000000000000000000000000007bffffffffffffffffffffffffffffffffffffffffffffffffffffffff1916827bffffffffffffffffffffffffffffffffffffffffffffffffffffffff1916145b806120f357506120f282612464565b5b9050919050565b60008073ffffffffffffffffffffffffffffffffffffffff1661211c83611b6e565b73ffffffffffffffffffffffffffffffffffffffff1614159050919050565b50505050565b50505050565b600061215383836124ce565b6121ac5782600001829080600181540180825580915050600190039060005260206000200160009091909190915055826000018054905083600101600084815260200190815260200160002081905550600190506121b1565b600090505b92915050565b60006121d88473ffffffffffffffffffffffffffffffffffffffff166124f1565b15612341578373ffffffffffffffffffffffffffffffffffffffff1663150b7a02612201611417565b8786866040518563ffffffff1660e01b81526004016122239493929190613d4a565b602060405180830381600087803b15801561223d57600080fd5b505af192505050801561226e57506040513d601f19601f8201168201806040525081019061226b9190613dab565b60015b6122f1573d806000811461229e576040519150601f19603f3d011682016040523d82523d6000602084013e6122a3565b606091505b506000815114156122e9576040517f08c379a00000000000000000000000000000000000000000000000000000000081526004016122e090613cb1565b60405180910390fd5b805181602001fd5b63150b7a0260e01b7bffffffffffffffffffffffffffffffffffffffffffffffffffffffff1916817bffffffffffffffffffffffffffffffffffffffffffffffffffffffff191614915050612346565b600190505b949350505050565b606060405180602001604052806000815250905090565b6060612370826113cc565b600061237a61234e565b9050600081511161239a57604051806020016040528060008152506123c5565b806123a484612514565b6040516020016123b5929190613cd1565b6040516020818303038152906040525b915050919050565b6123d7838361188b565b6123e460008484846121b7565b612423576040517f08c379a000000000000000000000000000000000000000000000000000000000815260040161241a90613cb1565b60405180910390fd5b505050565b600081600001805490509050919050565b6000826000018281548110612451576124506137cf565b5b9060005260206000200154905092915050565b60007f01ffc9a7000000000000000000000000000000000000000000000000000000007bffffffffffffffffffffffffffffffffffffffffffffffffffffffff1916827bffffffffffffffffffffffffffffffffffffffffffffffffffffffff1916149050919050565b600080836001016000848152602001908152602001600020541415905092915050565b6000808273ffffffffffffffffffffffffffffffffffffffff163b119050919050565b606060006001612523846125ec565b01905060008167ffffffffffffffff81111561254257612541612b1e565b5b6040519080825280601f01601f1916602001820160405280156125745781602001600182028036833780820191505090505b509050600082602001820190505b6001156125e1578080600190039150507f3031323334353637383961626364656600000000000000000000000000000000600a86061a8153600a85816125cb576125ca613dd8565b5b04945060008514156125dc576125e1565b612582565b819350505050919050565b600080600090507a184f03e93ff9f4daa797ed6e38ed64bf6a1f010000000000000000831061264a577a184f03e93ff9f4daa797ed6e38ed64bf6a1f01000000000000000083816126405761263f613dd8565b5b0492506040810190505b6d04ee2d6d415b85acef81000000008310612687576d04ee2d6d415b85acef8100000000838161267d5761267c613dd8565b5b0492506020810190505b662386f26fc1000083106126b657662386f26fc1000083816126ac576126ab613dd8565b5b0492506010810190505b6305f5e10083106126df576305f5e10083816126d5576126d4613dd8565b5b0492506008810190505b61271083106127045761271083816126fa576126f9613dd8565b5b0492506004810190505b60648310612727576064838161271d5761271c613dd8565b5b0492506002810190505b600a8310612736576001810190505b80915050919050565b82805461274b90613031565b90600052602060002090601f01602090048101928261276d57600085556127b4565b82601f1061278657805160ff19168380011785556127b4565b828001600101855582156127b4579182015b828111156127b3578251825591602001919060010190612798565b5b5090506127c191906127c5565b5090565b5b808211156127de5760008160009055506001016127c6565b5090565b6000604051905090565b600080fd5b600080fd5b60007fffffffff0000000000000000000000000000000000000000000000000000000082169050919050565b61282b816127f6565b811461283657600080fd5b50565b60008135905061284881612822565b92915050565b600060208284031215612864576128636127ec565b5b600061287284828501612839565b91505092915050565b60008115159050919050565b6128908161287b565b82525050565b60006020820190506128ab6000830184612887565b92915050565b600081519050919050565b600082825260208201905092915050565b60005b838110156128eb5780820151818401526020810190506128d0565b838111156128fa576000848401525b50505050565b6000601f19601f8301169050919050565b600061291c826128b1565b61292681856128bc565b93506129368185602086016128cd565b61293f81612900565b840191505092915050565b600060208201905081810360008301526129648184612911565b905092915050565b6000819050919050565b61297f8161296c565b811461298a57600080fd5b50565b60008135905061299c81612976565b92915050565b6000602082840312156129b8576129b76127ec565b5b60006129c68482850161298d565b91505092915050565b600073ffffffffffffffffffffffffffffffffffffffff82169050919050565b60006129fa826129cf565b9050919050565b612a0a816129ef565b82525050565b6000602082019050612a256000830184612a01565b92915050565b612a34816129ef565b8114612a3f57600080fd5b50565b600081359050612a5181612a2b565b92915050565b60008060408385031215612a6e57612a6d6127ec565b5b6000612a7c85828601612a42565b9250506020612a8d8582860161298d565b9150509250929050565b612aa08161296c565b82525050565b6000602082019050612abb6000830184612a97565b92915050565b600080600060608486031215612ada57612ad96127ec565b5b6000612ae886828701612a42565b9350506020612af986828701612a42565b9250506040612b0a8682870161298d565b9150509250925092565b600080fd5b600080fd5b7f4e487b7100000000000000000000000000000000000000000000000000000000600052604160045260246000fd5b612b5682612900565b810181811067ffffffffffffffff82111715612b7557612b74612b1e565b5b80604052505050565b6000612b886127e2565b9050612b948282612b4d565b919050565b600067ffffffffffffffff821115612bb457612bb3612b1e565b5b612bbd82612900565b9050602081019050919050565b82818337600083830152505050565b6000612bec612be784612b99565b612b7e565b905082815260208101848484011115612c0857612c07612b19565b5b612c13848285612bca565b509392505050565b600082601f830112612c3057612c2f612b14565b5b8135612c40848260208601612bd9565b91505092915050565b60008060408385031215612c6057612c5f6127ec565b5b6000612c6e85828601612a42565b925050602083013567ffffffffffffffff811115612c8f57612c8e6127f1565b5b612c9b85828601612c1b565b9150509250929050565b600060208284031215612cbb57612cba6127ec565b5b6000612cc984828501612a42565b91505092915050565b600060208284031215612ce857612ce76127ec565b5b600082013567ffffffffffffffff811115612d0657612d056127f1565b5b612d1284828501612c1b565b91505092915050565b612d248161287b565b8114612d2f57600080fd5b50565b600081359050612d4181612d1b565b92915050565b60008060408385031215612d5e57612d5d6127ec565b5b6000612d6c85828601612a42565b9250506020612d7d85828601612d32565b9150509250929050565b600067ffffffffffffffff821115612da257612da1612b1e565b5b612dab82612900565b9050602081019050919050565b6000612dcb612dc684612d87565b612b7e565b905082815260208101848484011115612de757612de6612b19565b5b612df2848285612bca565b509392505050565b600082601f830112612e0f57612e0e612b14565b5b8135612e1f848260208601612db8565b91505092915050565b60008060008060808587031215612e4257612e416127ec565b5b6000612e5087828801612a42565b9450506020612e6187828801612a42565b9350506040612e728782880161298d565b925050606085013567ffffffffffffffff811115612e9357612e926127f1565b5b612e9f87828801612dfa565b91505092959194509250565b600060ff82169050919050565b612ec181612eab565b82525050565b6000602082019050612edc6000830184612eb8565b92915050565b600081519050919050565b600082825260208201905092915050565b6000819050602082019050919050565b612f178161296c565b82525050565b6000612f298383612f0e565b60208301905092915050565b6000602082019050919050565b6000612f4d82612ee2565b612f578185612eed565b9350612f6283612efe565b8060005b83811015612f93578151612f7a8882612f1d565b9750612f8583612f35565b925050600181019050612f66565b5085935050505092915050565b60006020820190508181036000830152612fba8184612f42565b905092915050565b60008060408385031215612fd957612fd86127ec565b5b6000612fe785828601612a42565b9250506020612ff885828601612a42565b9150509250929050565b7f4e487b7100000000000000000000000000000000000000000000000000000000600052602260045260246000fd5b6000600282049050600182168061304957607f821691505b6020821081141561305d5761305c613002565b5b50919050565b7f4552433732313a20617070726f76616c20746f2063757272656e74206f776e6560008201527f7200000000000000000000000000000000000000000000000000000000000000602082015250565b60006130bf6021836128bc565b91506130ca82613063565b604082019050919050565b600060208201905081810360008301526130ee816130b2565b9050919050565b7f4552433732313a20617070726f76652063616c6c6572206973206e6f7420746f60008201527f6b656e206f776e6572206f7220617070726f76656420666f7220616c6c000000602082015250565b6000613151603d836128bc565b915061315c826130f5565b604082019050919050565b6000602082019050818103600083015261318081613144565b9050919050565b7f4552433732313a2063616c6c6572206973206e6f7420746f6b656e206f776e6560008201527f72206f7220617070726f76656400000000000000000000000000000000000000602082015250565b60006131e3602d836128bc565b91506131ee82613187565b604082019050919050565b60006020820190508181036000830152613212816131d6565b9050919050565b7f4e487b7100000000000000000000000000000000000000000000000000000000600052601160045260246000fd5b60006132538261296c565b915061325e8361296c565b9250817fffffffffffffffffffffffffffffffffffffffffffffffffffffffffffffffff048311821515161561329757613296613219565b5b828202905092915050565b60006132ad8261296c565b91506132b88361296c565b9250827fffffffffffffffffffffffffffffffffffffffffffffffffffffffffffffffff038211156132ed576132ec613219565b5b828201905092915050565b7f4d696e74696e672074696d652068617320657870697265640000000000000000600082015250565b600061332e6018836128bc565b9150613339826132f8565b602082019050919050565b6000602082019050818103600083015261335d81613321565b9050919050565b7f4d617820737570706c7920726561636865640000000000000000000000000000600082015250565b600061339a6012836128bc565b91506133a582613364565b602082019050919050565b600060208201905081810360008301526133c98161338d565b9050919050565b600081905092915050565b60006133e6826128b1565b6133f081856133d0565b93506134008185602086016128cd565b80840191505092915050565b600061341882846133db565b915081905092915050565b7f4e465420616c7265616479204d696e7465640000000000000000000000000000600082015250565b60006134596012836128bc565b915061346482613423565b602082019050919050565b600060208201905081810360008301526134888161344c565b9050919050565b7f496e73756666696369656e74207061796d656e74000000000000000000000000600082015250565b60006134c56014836128bc565b91506134d08261348f565b602082019050919050565b600060208201905081810360008301526134f4816134b8565b9050919050565b7f6e6577206974656d496400000000000000000000000000000000000000000000600082015250565b6000613531600a836128bc565b915061353c826134fb565b602082019050919050565b6000602082019050818103600083015261356081613524565b9050919050565b7f2041646472657373000000000000000000000000000000000000000000000000600082015250565b600061359d6008836128bc565b91506135a882613567565b602082019050919050565b600060208201905081810360008301526135cc81613590565b9050919050565b7f206d657461555249000000000000000000000000000000000000000000000000600082015250565b60006136096008836128bc565b9150613614826135d3565b602082019050919050565b60006020820190508181036000830152613638816135fc565b9050919050565b7f4552433732313a20696e76616c696420746f6b656e2049440000000000000000600082015250565b60006136756018836128bc565b91506136808261363f565b602082019050919050565b600060208201905081810360008301526136a481613668565b9050919050565b7f4552433732313a2061646472657373207a65726f206973206e6f74206120766160008201527f6c6964206f776e65720000000000000000000000000000000000000000000000602082015250565b60006137076029836128bc565b9150613712826136ab565b604082019050919050565b60006020820190508181036000830152613736816136fa565b9050919050565b7f416464726573732068617320616c7265616479206d696e74656420616e204e4660008201527f5400000000000000000000000000000000000000000000000000000000000000602082015250565b60006137996021836128bc565b91506137a48261373d565b604082019050919050565b600060208201905081810360008301526137c88161378c565b9050919050565b7f4e487b7100000000000000000000000000000000000000000000000000000000600052603260045260246000fd5b60006138098261296c565b91507fffffffffffffffffffffffffffffffffffffffffffffffffffffffffffffffff82141561383c5761383b613219565b5b600182019050919050565b7f4f776e61626c653a206e6577206f776e657220697320746865207a65726f206160008201527f6464726573730000000000000000000000000000000000000000000000000000602082015250565b60006138a36026836128bc565b91506138ae82613847565b604082019050919050565b600060208201905081810360008301526138d281613896565b9050919050565b7f4552433732313a207472616e736665722066726f6d20696e636f72726563742060008201527f6f776e6572000000000000000000000000000000000000000000000000000000602082015250565b60006139356025836128bc565b9150613940826138d9565b604082019050919050565b6000602082019050818103600083015261396481613928565b9050919050565b7f4552433732313a207472616e7366657220746f20746865207a65726f2061646460008201527f7265737300000000000000000000000000000000000000000000000000000000602082015250565b60006139c76024836128bc565b91506139d28261396b565b604082019050919050565b600060208201905081810360008301526139f6816139ba565b9050919050565b7f4552433732313a206d696e7420746f20746865207a65726f2061646472657373600082015250565b6000613a336020836128bc565b9150613a3e826139fd565b602082019050919050565b60006020820190508181036000830152613a6281613a26565b9050919050565b7f4552433732313a20746f6b656e20616c7265616479206d696e74656400000000600082015250565b6000613a9f601c836128bc565b9150613aaa82613a69565b602082019050919050565b60006020820190508181036000830152613ace81613a92565b9050919050565b7f45524337323155524953746f726167653a2055524920736574206f66206e6f6e60008201527f6578697374656e7420746f6b656e000000000000000000000000000000000000602082015250565b6000613b31602e836128bc565b9150613b3c82613ad5565b604082019050919050565b60006020820190508181036000830152613b6081613b24565b9050919050565b7f4f776e61626c653a2063616c6c6572206973206e6f7420746865206f776e6572600082015250565b6000613b9d6020836128bc565b9150613ba882613b67565b602082019050919050565b60006020820190508181036000830152613bcc81613b90565b9050919050565b7f4552433732313a20617070726f766520746f2063616c6c657200000000000000600082015250565b6000613c096019836128bc565b9150613c1482613bd3565b602082019050919050565b60006020820190508181036000830152613c3881613bfc565b9050919050565b7f4552433732313a207472616e7366657220746f206e6f6e20455243373231526560008201527f63656976657220696d706c656d656e7465720000000000000000000000000000602082015250565b6000613c9b6032836128bc565b9150613ca682613c3f565b604082019050919050565b60006020820190508181036000830152613cca81613c8e565b9050919050565b6000613cdd82856133db565b9150613ce982846133db565b91508190509392505050565b600081519050919050565b600082825260208201905092915050565b6000613d1c82613cf5565b613d268185613d00565b9350613d368185602086016128cd565b613d3f81612900565b840191505092915050565b6000608082019050613d5f6000830187612a01565b613d6c6020830186612a01565b613d796040830185612a97565b8181036060830152613d8b8184613d11565b905095945050505050565b600081519050613da581612822565b92915050565b600060208284031215613dc157613dc06127ec565b5b6000613dcf84828501613d96565b91505092915050565b7f4e487b7100000000000000000000000000000000000000000000000000000000600052601260045260246000fdfea2646970667358221220b3cfbcfe1d022b978356d6c52dbf3058c265b5a1549b0d1567a00b9066272f9164736f6c63430008090033",
  "linkReferences": {},
  "deployedLinkReferences": {}
}