{
  "_format": "hh-sol-artifact-1",
  "contractName": "BenzToken",
  "sourceName": "contracts/BenzToken.sol",
  "abi": [
    {
      "inputs": [
        {
          "internalType": "uint256",
          "name": "_cost",
          "type": "uint256"
        },
        {
          "internalType": "uint8",
          "name": "_maxSupply",
          "type": "uint8"
        },
        {
          "internalType": "uint256",
          "name": "_mintStartDate",
          "type": "uint256"
        },
        {
          "internalType": "uint256",
          "name": "_mintEndDate",
          "type": "uint256"
        }
      ],
      "stateMutability": "nonpayable",
      "type": "constructor"
    },
    {
      "anonymous": false,
      "inputs": [
        {
          "indexed": true,
          "internalType": "address",
          "name": "owner",
          "type": "address"
        },
        {
          "indexed": true,
          "internalType": "address",
          "name": "approved",
          "type": "address"
        },
        {
          "indexed": true,
          "internalType": "uint256",
          "name": "tokenId",
          "type": "uint256"
        }
      ],
      "name": "Approval",
      "type": "event"
    },
    {
      "anonymous": false,
      "inputs": [
        {
          "indexed": true,
          "internalType": "address",
          "name": "owner",
          "type": "address"
        },
        {
          "indexed": true,
          "internalType": "address",
          "name": "operator",
          "type": "address"
        },
        {
          "indexed": false,
          "internalType": "bool",
          "name": "approved",
          "type": "bool"
        }
      ],
      "name": "ApprovalForAll",
      "type": "event"
    },
    {
      "anonymous": false,
      "inputs": [
        {
          "indexed": false,
          "internalType": "uint256",
          "name": "_fromTokenId",
          "type": "uint256"
        },
        {
          "indexed": false,
          "internalType": "uint256",
          "name": "_toTokenId",
          "type": "uint256"
        }
      ],
      "name": "BatchMetadataUpdate",
      "type": "event"
    },
    {
      "anonymous": false,
      "inputs": [
        {
          "indexed": false,
          "internalType": "uint256",
          "name": "_tokenId",
          "type": "uint256"
        }
      ],
      "name": "MetadataUpdate",
      "type": "event"
    },
    {
      "anonymous": false,
      "inputs": [
        {
          "indexed": false,
          "internalType": "uint256",
          "name": "startDate",
          "type": "uint256"
        },
        {
          "indexed": false,
          "internalType": "uint256",
          "name": "endDate",
          "type": "uint256"
        }
      ],
      "name": "MintingPeriodSet",
      "type": "event"
    },
    {
      "anonymous": false,
      "inputs": [
        {
          "indexed": false,
          "internalType": "uint256",
          "name": "tokenId",
          "type": "uint256"
        },
        {
          "indexed": false,
          "internalType": "string",
          "name": "metadataURI",
          "type": "string"
        }
      ],
      "name": "NFTMinted",
      "type": "event"
    },
    {
      "anonymous": false,
      "inputs": [
        {
          "indexed": true,
          "internalType": "address",
          "name": "previousOwner",
          "type": "address"
        },
        {
          "indexed": true,
          "internalType": "address",
          "name": "newOwner",
          "type": "address"
        }
      ],
      "name": "OwnershipTransferred",
      "type": "event"
    },
    {
      "anonymous": false,
      "inputs": [
        {
          "indexed": true,
          "internalType": "address",
          "name": "from",
          "type": "address"
        },
        {
          "indexed": true,
          "internalType": "address",
          "name": "to",
          "type": "address"
        },
        {
          "indexed": true,
          "internalType": "uint256",
          "name": "tokenId",
          "type": "uint256"
        }
      ],
      "name": "Transfer",
      "type": "event"
    },
    {
      "inputs": [
        {
          "internalType": "address",
          "name": "to",
          "type": "address"
        },
        {
          "internalType": "uint256",
          "name": "tokenId",
          "type": "uint256"
        }
      ],
      "name": "approve",
      "outputs": [],
      "stateMutability": "nonpayable",
      "type": "function"
    },
    {
      "inputs": [
        {
          "internalType": "address",
          "name": "owner",
          "type": "address"
        }
      ],
      "name": "balanceOf",
      "outputs": [
        {
          "internalType": "uint256",
          "name": "",
          "type": "uint256"
        }
      ],
      "stateMutability": "view",
      "type": "function"
    },
    {
      "inputs": [],
      "name": "cost",
      "outputs": [
        {
          "internalType": "uint256",
          "name": "",
          "type": "uint256"
        }
      ],
      "stateMutability": "view",
      "type": "function"
    },
    {
      "inputs": [
        {
          "internalType": "uint256",
          "name": "tokenId",
          "type": "uint256"
        }
      ],
      "name": "getApproved",
      "outputs": [
        {
          "internalType": "address",
          "name": "",
          "type": "address"
        }
      ],
      "stateMutability": "view",
      "type": "function"
    },
    {
      "inputs": [],
      "name": "getMintingPeriod",
      "outputs": [
        {
          "internalType": "uint256",
          "name": "",
          "type": "uint256"
        },
        {
          "internalType": "uint256",
          "name": "",
          "type": "uint256"
        }
      ],
      "stateMutability": "view",
      "type": "function"
    },
    {
      "inputs": [
        {
          "internalType": "address",
          "name": "wallet",
          "type": "address"
        }
      ],
      "name": "getOwnedTokens",
      "outputs": [
        {
          "internalType": "uint256[]",
          "name": "",
          "type": "uint256[]"
        }
      ],
      "stateMutability": "view",
      "type": "function"
    },
    {
      "inputs": [
        {
          "internalType": "address",
          "name": "owner",
          "type": "address"
        },
        {
          "internalType": "address",
          "name": "operator",
          "type": "address"
        }
      ],
      "name": "isApprovedForAll",
      "outputs": [
        {
          "internalType": "bool",
          "name": "",
          "type": "bool"
        }
      ],
      "stateMutability": "view",
      "type": "function"
    },
    {
      "inputs": [],
      "name": "maxSupply",
      "outputs": [
        {
          "internalType": "uint256",
          "name": "",
          "type": "uint256"
        }
      ],
      "stateMutability": "view",
      "type": "function"
    },
    {
      "inputs": [],
      "name": "mintEndDate",
      "outputs": [
        {
          "internalType": "uint256",
          "name": "",
          "type": "uint256"
        }
      ],
      "stateMutability": "view",
      "type": "function"
    },
    {
      "inputs": [],
      "name": "mintStartDate",
      "outputs": [
        {
          "internalType": "uint256",
          "name": "",
          "type": "uint256"
        }
      ],
      "stateMutability": "view",
      "type": "function"
    },
    {
      "inputs": [],
      "name": "name",
      "outputs": [
        {
          "internalType": "string",
          "name": "",
          "type": "string"
        }
      ],
      "stateMutability": "view",
      "type": "function"
    },
    {
      "inputs": [],
      "name": "owner",
      "outputs": [
        {
          "internalType": "address",
          "name": "",
          "type": "address"
        }
      ],
      "stateMutability": "view",
      "type": "function"
    },
    {
      "inputs": [
        {
          "internalType": "uint256",
          "name": "tokenId",
          "type": "uint256"
        }
      ],
      "name": "ownerOf",
      "outputs": [
        {
          "internalType": "address",
          "name": "",
          "type": "address"
        }
      ],
      "stateMutability": "view",
      "type": "function"
    },
    {
      "inputs": [
        {
          "internalType": "address",
          "name": "recipient",
          "type": "address"
        },
        {
          "internalType": "string",
          "name": "metadataURI",
          "type": "string"
        }
      ],
      "name": "payToMint",
      "outputs": [
        {
          "internalType": "uint256",
          "name": "",
          "type": "uint256"
        }
      ],
      "stateMutability": "payable",
      "type": "function"
    },
    {
      "inputs": [],
      "name": "renounceOwnership",
      "outputs": [],
      "stateMutability": "nonpayable",
      "type": "function"
    },
    {
      "inputs": [
        {
          "internalType": "address",
          "name": "from",
          "type": "address"
        },
        {
          "internalType": "address",
          "name": "to",
          "type": "address"
        },
        {
          "internalType": "uint256",
          "name": "tokenId",
          "type": "uint256"
        }
      ],
      "name": "safeTransferFrom",
      "outputs": [],
      "stateMutability": "nonpayable",
      "type": "function"
    },
    {
      "inputs": [
        {
          "internalType": "address",
          "name": "from",
          "type": "address"
        },
        {
          "internalType": "address",
          "name": "to",
          "type": "address"
        },
        {
          "internalType": "uint256",
          "name": "tokenId",
          "type": "uint256"
        },
        {
          "internalType": "bytes",
          "name": "data",
          "type": "bytes"
        }
      ],
      "name": "safeTransferFrom",
      "outputs": [],
      "stateMutability": "nonpayable",
      "type": "function"
    },
    {
      "inputs": [
        {
          "internalType": "address",
          "name": "operator",
          "type": "address"
        },
        {
          "internalType": "bool",
          "name": "approved",
          "type": "bool"
        }
      ],
      "name": "setApprovalForAll",
      "outputs": [],
      "stateMutability": "nonpayable",
      "type": "function"
    },
    {
      "inputs": [
        {
          "internalType": "uint256",
          "name": "startDate",
          "type": "uint256"
        },
        {
          "internalType": "uint256",
          "name": "endDate",
          "type": "uint256"
        }
      ],
      "name": "setMintingPeriod",
      "outputs": [],
      "stateMutability": "nonpayable",
      "type": "function"
    },
    {
      "inputs": [
        {
          "internalType": "bytes4",
          "name": "interfaceId",
          "type": "bytes4"
        }
      ],
      "name": "supportsInterface",
      "outputs": [
        {
          "internalType": "bool",
          "name": "",
          "type": "bool"
        }
      ],
      "stateMutability": "view",
      "type": "function"
    },
    {
      "inputs": [],
      "name": "symbol",
      "outputs": [
        {
          "internalType": "string",
          "name": "",
          "type": "string"
        }
      ],
      "stateMutability": "view",
      "type": "function"
    },
    {
      "inputs": [
        {
          "internalType": "uint256",
          "name": "tokenId",
          "type": "uint256"
        }
      ],
      "name": "tokenURI",
      "outputs": [
        {
          "internalType": "string",
          "name": "",
          "type": "string"
        }
      ],
      "stateMutability": "view",
      "type": "function"
    },
    {
      "inputs": [],
      "name": "totalSupply",
      "outputs": [
        {
          "internalType": "uint256",
          "name": "",
          "type": "uint256"
        }
      ],
      "stateMutability": "view",
      "type": "function"
    },
    {
      "inputs": [
        {
          "internalType": "address",
          "name": "from",
          "type": "address"
        },
        {
          "internalType": "address",
          "name": "to",
          "type": "address"
        },
        {
          "internalType": "uint256",
          "name": "tokenId",
          "type": "uint256"
        }
      ],
      "name": "transferFrom",
      "outputs": [],
      "stateMutability": "nonpayable",
      "type": "function"
    },
    {
      "inputs": [
        {
          "internalType": "address",
          "name": "newOwner",
          "type": "address"
        }
      ],
      "name": "transferOwnership",
      "outputs": [],
      "stateMutability": "nonpayable",
      "type": "function"
    },
    {
      "inputs": [],
      "name": "withdrawEther",
      "outputs": [],
      "stateMutability": "nonpayable",
      "type": "function"
    }
  ],
  "bytecode": "0x60a060405234156200001057600080fd5b6200240b8038036200002281620000d1565b818382396080818383010312156200003957600080fd5b805192506020810151915060ff821682146200005457600080fd5b60408101516200006b60608301518285876200012e565b50505050604051611f3580620004968339608051828181610433015261187501528082f35b634e487b7160e01b600052604160045260246000fd5b604080519081016001600160401b0381118282101715620000cb57620000cb62000090565b60405290565b604051601f8201601f191681016001600160401b0381118282101715620000fc57620000fc62000090565b604052919050565b600062000110620000a6565b90506009815290565b600062000125620000a6565b90506005815290565b6200013862000104565b6020682132b73d2a37b5b2b760b91b818301526200015562000119565b64424e5a544b60d81b8183015282516001600160401b038111156200017e576200017e62000090565b600062000197826200019183546200027b565b620002b8565b83601f831160018114620001cc57828415620001b35750868201515b600019600386901b1c1916600185901b17835562000233565b60008052601f198416600080516020620023cb833981519152845b828110156200020857898501518255938801936001909101908801620001e7565b5085821015620002275788840151600019600388901b60f8161c191681555b505060018460011b0183555b50505050620002428162000375565b50505062000250336200044a565b6200025a83600d55565b6200026484600e55565b60ff82166080526200027581600c55565b50505050565b600181811c908216806200029057607f821691505b60208210811415620002b257634e487b7160e01b600052602260045260246000fd5b50919050565b601f81111562000312576000808052600080516020620023cb833981519152601f840160051c81016020851015620002ed5750805b601f840160051c820191505b818110156200030e57828155600101620002f9565b5050505b5050565b601f811115620003125760016000818152600080516020620023eb833981519152601f850160051c810160208610156200034d5750805b601f850160051c820191505b818110156200036d57828155830162000359565b505050505050565b80516001600160401b0381111562000391576200039162000090565b6001620003aa82620003a483546200027b565b62000316565b602080601f841160018114620003e05760008515620003c95750858301515b600019600387901b1c191685851b1784556200036d565b6001600052601f198516600080516020620023eb83398151915260005b828110156200041c5788860151825594840194908601908401620003fd565b50868210156200043b5787850151600019600389901b60f8161c191681555b505050505090811b8101905550565b60075460018060a01b0380831660018060a01b0319831617600755828183167f8be0079c531659141344cd1fd0a4f28419497f9722a3daafe3b4186f6b6457e06000604051a350505056fe6040608081526004361061052f576000803560e01c6301ffc9a78114610137576306fdde0381146101675763081812fc81146101935763095ea7b381146101c1576313faede681146101e5576318160ddd8114610205576323b872dd811461022557633dfe2c49811461024b576342842e0e8114610275576349b5fe1f81146102935763615fd9e281146102b357636352211e81146102da576370a0823181146102f55763715018a6811461031a57637362377b811461033a57638da5cb5b8114610355576395b1b6808114610381576395d89b4181146103a15763a22cb46581146103bc5763b88d4fde81146103d95763c87b56dd81146104015763d5abeb01811461041c5763d9d6165581146104595763db4436ef81146104815763e985e9c5811461049e5763f2fde38b81146105115761052c565b3415610141578182fd5b607f196101626101586101533661054e565b611643565b151560805260a090565b016080f35b3415610171578182fd5b61017a36610574565b610182610c4e565b83518061018f83836105e2565b0381f35b341561019d578182fd5b6101ae6101a9366105fc565b610ea0565b83516001600160a01b0382168152602081f35b34156101cb578182fd5b6101d436610618565b6101de8183610d7f565b5050818351f35b34156101ef578182fd5b6101f836610574565b600c548351818152602081f35b341561020f578182fd5b61021836610574565b6008548351818152602081f35b341561022f578182fd5b61023836610650565b610243818385610fec565b505050818351f35b3415610255578182fd5b61025e36610574565b600d54600e54845182815260208101829052604081f35b341561027f578182fd5b61028836610650565b61024381838561103f565b341561029d578182fd5b6102a636610574565b600d548351818152602081f35b6102bc3661077a565b6102c68183611845565b91505083518061018f838390815260200190565b34156102e4578182fd5b6101ae6102f0366105fc565b610beb565b34156102ff578182fd5b61031061030b366107ea565b610b24565b8351818152602081f35b3415610324578182fd5b61032d36610574565b6103356109a0565b818351f35b3415610344578182fd5b61034d36610574565b610335611eb5565b341561035f578182fd5b61036836610574565b60075483516001600160a01b0390911680825290602081f35b341561038b578182fd5b61039436610574565b600e548351818152602081f35b34156103ab578182fd5b6103b436610574565b610182610cf4565b34156103c6578182fd5b6103cf36610816565b6101de8183610ecc565b34156103e3578182fd5b6103ec3661085e565b6103f881838587611057565b50505050818351f35b341561040b578182fd5b610182610417366105fc565b611524565b3415610426578182fd5b61042f36610574565b82517f00000000000000000000000000000000000000000000000000000000000000008152602081f35b3415610463578182fd5b61047461046f366107ea565b611dcf565b83518061018f83836108ee565b341561048b578182fd5b61049436610932565b6101de81836114b4565b34156104a8578182fd5b6104b136610954565b6104fb6104f4826104d6856001600160a01b0316600090815260056020526040902090565b6001600160a01b039190911660009081526020919091526040902090565b5460ff1690565b91505083518061018f8383901515815260200190565b341561051b578182fd5b610335610527366107ea565b610a4d565b50505b50600080fd5b6001600160e01b03198116811461054b57600080fd5b50565b600060206003198301121561056257600080fd5b60043561056e81610535565b92915050565b60006003198201121561054b57600080fd5b60005b838110156105a1578181015183820152602001610589565b838111156105b0576000848401525b50505050565b600081518084526105ce816020860160208601610586565b601f01601f19169290920160200192915050565b6020815260006105f560208301846105b6565b9392505050565b600060206003198301121561061057600080fd5b505060043590565b60008060406003198401121561062d57600080fd5b6004356001600160a01b038116811461064557600080fd5b936024359350915050565b6000808060606003198501121561066657600080fd5b6004356001600160a01b03808216821461067f57600080fd5b90935060243590808216821461069457600080fd5b50929492935050604435919050565b634e487b7160e01b600052604160045260246000fd5b6020810181811067ffffffffffffffff821117156106d9576106d96106a3565b60405250565b601f8201601f1916810167ffffffffffffffff81118282101715610705576107056106a3565b6040525050565b600067ffffffffffffffff821115610726576107266106a3565b50601f01601f191660200190565b600061073f8361070c565b60405161074c82826106df565b80925084815285858501111561076157600080fd5b8484602083013760006020868301015250509392505050565b60008060406003198401121561078f57600080fd5b6004356001600160a01b03811681146107a757600080fd5b915060243567ffffffffffffffff8111156107c157600080fd5b8360238201126107d057600080fd5b6107e284826004013560248401610734565b915050915091565b60006020600319830112156107fe57600080fd5b6004356001600160a01b038116811461056e57600080fd5b60008060406003198401121561082b57600080fd5b6004356001600160a01b038116811461084357600080fd5b9150602435801515811461085657600080fd5b919391925050565b600080808060806003198601121561087557600080fd5b6004356001600160a01b03808216821461088e57600080fd5b9094506024359080821682146108a357600080fd5b509250604435915060643567ffffffffffffffff8111156108c357600080fd5b8560238201126108d257600080fd5b6108e486826004013560248401610734565b9150509193509193565b6020808252825182820181905260009190848201906040850190845b818110156109265783518352928401929184019160010161090a565b50909695505050505050565b60008060406003198401121561094757600080fd5b5050600435916024359150565b60008060406003198401121561096957600080fd5b6004356001600160a01b03808216821461098257600080fd5b90925060243590808216821461099757600080fd5b50919391925050565b6109a86109f5565b6007546bffffffffffffffffffffffff60a01b8116600755600060018060a01b0382167f8be0079c531659141344cd1fd0a4f28419497f9722a3daafe3b4186f6b6457e06000604051a350565b6007546001600160a01b031633811461054b5760405162461bcd60e51b815260206004820181905260248201527f4f776e61626c653a2063616c6c6572206973206e6f7420746865206f776e65726044820152606481fd5b610a556109f5565b6001600160a01b0381811680610ab95760405162461bcd60e51b815260206004820152602660248201527f4f776e61626c653a206e6577206f776e657220697320746865207a65726f206160448201526564647265737360d01b6064820152608481fd5b600754816bffffffffffffffffffffffff60a01b821617600755838382167f8be0079c531659141344cd1fd0a4f28419497f9722a3daafe3b4186f6b6457e06000604051a350505050565b80546001600160a01b0319166001600160a01b0392909216919091179055565b60006001600160a01b03821680610b8c5760405162461bcd60e51b815260206004820152602960248201527f4552433732313a2061646472657373207a65726f206973206e6f7420612076616044820152683634b21037bbb732b960b91b6064820152608481fd5b60009081526003602052604090205492915050565b8061054b5760405162461bcd60e51b815260206004820152601860248201527f4552433732313a20696e76616c696420746f6b656e20494400000000000000006044820152606481fd5b6000908152600260205260408120546001600160a01b0316610c0e811515610ba1565b919050565b600181811c90821680610c2757607f821691505b60208210811415610c4857634e487b7160e01b600052602260045260246000fd5b50919050565b60405160008054610c5e81610c13565b80845260018281168015610c795760018114610c8e57610ce0565b60ff1984166020870152604086019450610ce0565b600080527f290decd9548b62a8d60345a988386fc84ba6bc95484008f6362f93160ef3e56360005b84811015610cd75781546020828a0101528382019150602081019050610cb6565b87016020019550505b50505050610cf0828203836106df565b5090565b6040516001805460009190610d0881610c13565b8085528183168015610d215760018114610d3657610ce0565b60ff1983166020870152604086019450610ce0565b836000527fb10e2d527612073b26eecdfd717e6a320cf44b4afac2b0732d9fcbe2b7fa0cf660005b83811015610cd75781546020828a0101528582019150602081019050610d5e565b610d8882610beb565b6001600160a01b03818116838216811415610dec5760405162461bcd60e51b815260206004820152602160248201527f4552433732313a20617070726f76616c20746f2063757272656e74206f776e656044820152603960f91b6064820152608481fd5b3314905080610e1e5760ff610e19336104d6856001600160a01b0316600090815260056020526040902090565b541690505b80610e905760405162461bcd60e51b815260206004820152603d60248201527f4552433732313a20617070726f76652063616c6c6572206973206e6f7420746f60448201527f6b656e206f776e6572206f7220617070726f76656420666f7220616c6c00000060648201529150608482fd5b5050610e9c82826112e3565b5050565b610eb1610eac82611330565b610ba1565b6000908152600460205260409020546001600160a01b031690565b336001600160a01b0382161415610f225760405162461bcd60e51b815260206004820152601960248201527f4552433732313a20617070726f766520746f2063616c6c6572000000000000006044820152606481fd5b3360009081526005602090815260408083206001600160a01b0385168452909152902082151560ff1982541660ff8216811783555060405191508082525081337f17307eab39ab6107e8899845ad3d59bd9653f200f220920489ca2b5937696c31602084a3505050565b8061054b5760405162461bcd60e51b815260206004820152602d60248201527f4552433732313a2063616c6c6572206973206e6f7420746f6b656e206f776e6560448201526c1c881bdc88185c1c1c9bdd9959609a1b6064820152608481fd5b610ffe610ff984336110ee565b610f8c565b6110098383836111b1565b505050565b60006040516020810181811067ffffffffffffffff82111715611033576110336106a3565b60405260008152919050565b60405161104b816106b9565b600081526105b0818585855b611064610ff984336110ee565b61106f8383836111b1565b61107b848484846113e4565b6105b05760405162461bcd60e51b8152806110986004820161109c565b0381fd5b60208082526032908201527f4552433732313a207472616e7366657220746f206e6f6e20455243373231526560408201527131b2b4bb32b91034b6b83632b6b2b73a32b960711b606082015260800190565b60006001600160a01b038061110285610beb565b1681841681811480611136575060008281526005602090815260408083206001600160a01b038916845290915290205460ff165b8092508061114e57818461114989610ea0565b161492505b509095945050505050565b8061054b5760405162461bcd60e51b815260206004820152602560248201527f4552433732313a207472616e736665722066726f6d20696e636f72726563742060448201526437bbb732b960d91b6064820152608481fd5b6111ba83610beb565b6001600160a01b038281166111d28383168214611159565b81851661122c5760405162461bcd60e51b8152602060048201526024808201527f4552433732313a207472616e7366657220746f20746865207a65726f206164646044820152637265737360e01b60648201529250608483fd5b61124e8161124861123c89610beb565b6001600160a01b031690565b14611159565b505050600083815260046020908152604080832080546001600160a01b03191690556001600160a01b0384811684526003835281842080546000190190558516835280832080546001019055858352600290915290206112b4908390610b04565b610b04565b8282827fddf252ad1be2c89b69c2b068fc378daa952ba7f163c4a11628f55a4df523b3ef6000604051a4505050565b8160005260046020526112fa816040600020610b04565b818161130584610beb565b7f8c5be1e5ebec7d5bd14f71427d1e84f3dd0314c0f7b2291e5b200ac8c7c3b9256000604051a45050565b6000908152600260205260409020546001600160a01b0316151590565b60006020828403121561135f57600080fd5b81516105f581610535565b6001600160a01b038281168252831660208201526040810184905260806060820181905260009061139d908301876105b6565b9695505050505050565b60003d80156113dc573d6113ba8161070c565b6040516113c782826106df565b8281528094503d6000602083013e5050505090565b606091505090565b6000823b158015906114a6576001600160a01b038416803b61140557600080fd5b604051630a85bd0160e11b808252602082806114278c8c8b336004860161136a565b03846000875af1925060008315611451576114423d846106df565b61144e3d84018461134d565b90505b8315801561148f576114616113a7565b935083518015600081146114885760405162461bcd60e51b8152806110986004820161109c565b8186602001fd5b506001600160e01b0319161493506114ac92505050565b60019150505b949350505050565b6114bc6109f5565b80600d5581600e556040517f50632292d75acc9b5573381c2d1d1eac1a829470300606d22e5ed5eb26fa9da081611500858585908152602081019190915260400190565b0382a1505050565b6000815161151a818560208601610586565b9290920192915050565b611530610eac82611330565b6000808281526020600681526040822060405183825461154f81610c13565b8084526001828116801561156a576001811461157e576115a9565b60ff198416868901526040860194506115a9565b868952878920895b848110156115a15781548882018b0152908301908901611586565b870189019550505b505050506115b9828203836106df565b506115c261100e565b935083516115d35795945050505050565b805115611607576040519150816115f56115ef85850187611508565b83611508565b03601f198101835261114e81846106df565b5050505061056e8261161b610eac82611330565b50600060405161162a816106b9565b6000905260405161163a816106b9565b60008152919050565b60006001600160e01b03198216632483248360e11b8114806105f5576380ac58cd60e01b82148061167a5750635b5e139f60e01b82145b808161168c57506301ffc9a760e01b83145b95945050505050565b8061054b5760405162461bcd60e51b815260206004820152602160248201527f416464726573732068617320616c7265616479206d696e74656420616e204e466044820152601560fa1b6064820152608481fd5b8061054b5760405162461bcd60e51b815260206004820152601260248201527113585e081cdd5c1c1b1e481c995858da195960721b6044820152606481fd5b6000604051825161173d818360208701610586565b6009908201908152819003602001902092915050565b8061054b5760405162461bcd60e51b815260206004820152601260248201527113919508185b1c9958591e48135a5b9d195960721b6044820152606481fd5b8061054b5760405162461bcd60e51b8152602060048201526014602482015273125b9cdd59999a58da595b9d081c185e5b595b9d60621b6044820152606481fd5b8061054b5760405162461bcd60e51b815260206004820152602660248201527f4572726f72207768696c6520616464696e672074686520746f6b656e20746f206044820152651dd85b1b195d60d21b6064820152608481fd5b8181526040602082015260006114ac60408301856105b6565b6001600160a01b0381166000908152600b602052604090205461186b9060ff1615611695565b600060085461189b7f000000000000000000000000000000000000000000000000000000000000000082106116e9565b506118b260016118aa85611728565b541415611753565b6118c0600c54341015611792565b6118ee6118e1836001600160a01b03166000908152600b6020526040902090565b805460ff19166001179055565b6008546118ff600160085401600855565b61191161190b85611728565b60019055565b61191b81846119e2565b6119258482611b08565b61195461194f8261194a866001600160a01b03166000908152600a6020526040902090565b611cac565b6117d3565b61195d81611d36565b6040517f9e0bfaf38878aad3ebd19b8c8065288eb130f0499a7378363d4652515588ac968161198d87858561182c565b0382a1509392505050565b8061054b5760405162461bcd60e51b815260206004820152601c60248201527f4552433732313a20746f6b656e20616c7265616479206d696e746564000000006044820152606481fd5b6001600160a01b038116611a355760405162461bcd60e51b815260206004820181905260248201527f4552433732313a206d696e7420746f20746865207a65726f20616464726573736044820152606481fd5b611a47611a4183611330565b15611998565b611a53611a4183611330565b6001600160a01b038116600090815260036020526040902080546001019055611a8b816112af84600090815260026020526040902090565b818160007fddf252ad1be2c89b69c2b068fc378daa952ba7f163c4a11628f55a4df523b3ef6000604051a45050565b601f82111561100957600081815260208120601f850160051c81016020861015611ae15750805b601f850160051c820191505b81811015611b0057828155600101611aed565b505050505050565b611b1181611330565b611b715760405162461bcd60e51b815260206004820152602e60248201527f45524337323155524953746f726167653a2055524920736574206f66206e6f6e60448201526d32bc34b9ba32b73a103a37b5b2b760911b6064820152608481fd5b806000526020600681526040600020835167ffffffffffffffff811115611b9a57611b9a6106a3565b611bae81611ba88454610c13565b84611aba565b82601f821160018114611be15760008315611bc95750868201515b600019600385901b1c1916600184901b178455611c3a565b600084815260208120601f198516915b82811015611c1057898501518255938701936001909101908701611bf1565b5084821015611c2e5788840151600019600387901b60f8161c191681555b505060018360011b0184555b50505050506040517ff8e1a15aba9398e019f0b49df1a4fde98ee17ae345cb5f6b5e2c27f5033e8ce781611500848490815260200190565b634e487b7160e01b600052603260045260246000fd5b60008082548410611c9b57611c9b611c72565b505060009081526020812090910191565b60006001820183600052806020526040600020541560008114611d2b578354680100000000000000008110611ce357611ce36106a3565b600181018555611cf38186611c88565b815460001960039290921b91821b80199091169189901b1617905550508254600085815260209290925260409091205550600161056e565b506000949350505050565b604051602081014281528260408301523360601b6060830152605482526080820182811067ffffffffffffffff82111715611d7357611d736106a3565b6040908152915190206000928352600f602052912055565b600067ffffffffffffffff821115611da557611da56106a3565b5060051b60200190565b600081518310611dc157611dc1611c72565b5060059190911b0160200190565b6001600160a01b0381166000908152600a60205260408120548190611df381611d8b565b604051611e0082826106df565b828152601f19611e0f84611d8b565b013660208301378392505b6001600160a01b0386166000908152600a60205260409020548310611e3e5761168c565b611e6583611e60886001600160a01b03166000908152600a6020526040902090565b611e99565b611e6f8483611daf565b52600019831415611e8e57634e487b7160e01b84526011600452602484fd5b600183019250611e1a565b6000611ea58383611c88565b905460039190911b1c9392505050565b611ebd6109f5565b60075447906001600160a01b0316600082611ed757506108fc5b600080600080868686f1611009576040513d6000823e3d81fdfea36469706673582212206ab832b6b441d19ef501215612c04a4a2300c7d29befa460856bed5690531ac66c6578706572696d656e74616cf564736f6c63430008090041290decd9548b62a8d60345a988386fc84ba6bc95484008f6362f93160ef3e563b10e2d527612073b26eecdfd717e6a320cf44b4afac2b0732d9fcbe2b7fa0cf6",
  "linkReferences": {},
  "deployedLinkReferences": {}
}