{
  "_format": "hh-sol-artifact-1",
  "contractName": "BenzToken",
  "sourceName": "contracts/BenzToken.sol",
  "abi": [
    {
      "inputs": [
        {
          "internalType": "uint256",
          "name": "_cost",
          "type": "uint256"
        },
        {
          "internalType": "uint256",
          "name": "_validityPeriodInDays",
          "type": "uint256"
        },
        {
          "internalType": "uint8",
          "name": "_maxSupply",
          "type": "uint8"
        }
      ],
      "stateMutability": "nonpayable",
      "type": "constructor"
    },
    {
      "anonymous": false,
      "inputs": [
        {
          "indexed": true,
          "internalType": "address",
          "name": "owner",
          "type": "address"
        },
        {
          "indexed": true,
          "internalType": "address",
          "name": "approved",
          "type": "address"
        },
        {
          "indexed": true,
          "internalType": "uint256",
          "name": "tokenId",
          "type": "uint256"
        }
      ],
      "name": "Approval",
      "type": "event"
    },
    {
      "anonymous": false,
      "inputs": [
        {
          "indexed": true,
          "internalType": "address",
          "name": "owner",
          "type": "address"
        },
        {
          "indexed": true,
          "internalType": "address",
          "name": "operator",
          "type": "address"
        },
        {
          "indexed": false,
          "internalType": "bool",
          "name": "approved",
          "type": "bool"
        }
      ],
      "name": "ApprovalForAll",
      "type": "event"
    },
    {
      "anonymous": false,
      "inputs": [
        {
          "indexed": false,
          "internalType": "uint256",
          "name": "_fromTokenId",
          "type": "uint256"
        },
        {
          "indexed": false,
          "internalType": "uint256",
          "name": "_toTokenId",
          "type": "uint256"
        }
      ],
      "name": "BatchMetadataUpdate",
      "type": "event"
    },
    {
      "anonymous": false,
      "inputs": [
        {
          "indexed": false,
          "internalType": "uint256",
          "name": "_tokenId",
          "type": "uint256"
        }
      ],
      "name": "MetadataUpdate",
      "type": "event"
    },
    {
      "anonymous": false,
      "inputs": [
        {
          "indexed": true,
          "internalType": "address",
          "name": "previousOwner",
          "type": "address"
        },
        {
          "indexed": true,
          "internalType": "address",
          "name": "newOwner",
          "type": "address"
        }
      ],
      "name": "OwnershipTransferred",
      "type": "event"
    },
    {
      "anonymous": false,
      "inputs": [
        {
          "indexed": true,
          "internalType": "address",
          "name": "from",
          "type": "address"
        },
        {
          "indexed": true,
          "internalType": "address",
          "name": "to",
          "type": "address"
        },
        {
          "indexed": true,
          "internalType": "uint256",
          "name": "tokenId",
          "type": "uint256"
        }
      ],
      "name": "Transfer",
      "type": "event"
    },
    {
      "inputs": [
        {
          "internalType": "address",
          "name": "to",
          "type": "address"
        },
        {
          "internalType": "uint256",
          "name": "tokenId",
          "type": "uint256"
        }
      ],
      "name": "approve",
      "outputs": [],
      "stateMutability": "nonpayable",
      "type": "function"
    },
    {
      "inputs": [
        {
          "internalType": "address",
          "name": "owner",
          "type": "address"
        }
      ],
      "name": "balanceOf",
      "outputs": [
        {
          "internalType": "uint256",
          "name": "",
          "type": "uint256"
        }
      ],
      "stateMutability": "view",
      "type": "function"
    },
    {
      "inputs": [],
      "name": "cost",
      "outputs": [
        {
          "internalType": "uint256",
          "name": "",
          "type": "uint256"
        }
      ],
      "stateMutability": "view",
      "type": "function"
    },
    {
      "inputs": [
        {
          "internalType": "uint256",
          "name": "tokenId",
          "type": "uint256"
        }
      ],
      "name": "getApproved",
      "outputs": [
        {
          "internalType": "address",
          "name": "",
          "type": "address"
        }
      ],
      "stateMutability": "view",
      "type": "function"
    },
    {
      "inputs": [],
      "name": "getMintingPeriod",
      "outputs": [
        {
          "internalType": "uint256",
          "name": "",
          "type": "uint256"
        }
      ],
      "stateMutability": "view",
      "type": "function"
    },
    {
      "inputs": [
        {
          "internalType": "address",
          "name": "wallet",
          "type": "address"
        }
      ],
      "name": "getOwnedTokens",
      "outputs": [
        {
          "internalType": "uint256[]",
          "name": "",
          "type": "uint256[]"
        }
      ],
      "stateMutability": "view",
      "type": "function"
    },
    {
      "inputs": [
        {
          "internalType": "address",
          "name": "owner",
          "type": "address"
        },
        {
          "internalType": "address",
          "name": "operator",
          "type": "address"
        }
      ],
      "name": "isApprovedForAll",
      "outputs": [
        {
          "internalType": "bool",
          "name": "",
          "type": "bool"
        }
      ],
      "stateMutability": "view",
      "type": "function"
    },
    {
      "inputs": [],
      "name": "maxSupply",
      "outputs": [
        {
          "internalType": "uint256",
          "name": "",
          "type": "uint256"
        }
      ],
      "stateMutability": "view",
      "type": "function"
    },
    {
      "inputs": [],
      "name": "mintEndDate",
      "outputs": [
        {
          "internalType": "uint256",
          "name": "",
          "type": "uint256"
        }
      ],
      "stateMutability": "view",
      "type": "function"
    },
    {
      "inputs": [],
      "name": "mintStartDate",
      "outputs": [
        {
          "internalType": "uint256",
          "name": "",
          "type": "uint256"
        }
      ],
      "stateMutability": "view",
      "type": "function"
    },
    {
      "inputs": [],
      "name": "name",
      "outputs": [
        {
          "internalType": "string",
          "name": "",
          "type": "string"
        }
      ],
      "stateMutability": "view",
      "type": "function"
    },
    {
      "inputs": [],
      "name": "owner",
      "outputs": [
        {
          "internalType": "address",
          "name": "",
          "type": "address"
        }
      ],
      "stateMutability": "view",
      "type": "function"
    },
    {
      "inputs": [
        {
          "internalType": "uint256",
          "name": "tokenId",
          "type": "uint256"
        }
      ],
      "name": "ownerOf",
      "outputs": [
        {
          "internalType": "address",
          "name": "",
          "type": "address"
        }
      ],
      "stateMutability": "view",
      "type": "function"
    },
    {
      "inputs": [
        {
          "internalType": "address",
          "name": "recipient",
          "type": "address"
        },
        {
          "internalType": "string",
          "name": "metadataURI",
          "type": "string"
        }
      ],
      "name": "payToMint",
      "outputs": [
        {
          "internalType": "uint256",
          "name": "",
          "type": "uint256"
        }
      ],
      "stateMutability": "payable",
      "type": "function"
    },
    {
      "inputs": [],
      "name": "renounceOwnership",
      "outputs": [],
      "stateMutability": "nonpayable",
      "type": "function"
    },
    {
      "inputs": [
        {
          "internalType": "address",
          "name": "from",
          "type": "address"
        },
        {
          "internalType": "address",
          "name": "to",
          "type": "address"
        },
        {
          "internalType": "uint256",
          "name": "tokenId",
          "type": "uint256"
        }
      ],
      "name": "safeTransferFrom",
      "outputs": [],
      "stateMutability": "nonpayable",
      "type": "function"
    },
    {
      "inputs": [
        {
          "internalType": "address",
          "name": "from",
          "type": "address"
        },
        {
          "internalType": "address",
          "name": "to",
          "type": "address"
        },
        {
          "internalType": "uint256",
          "name": "tokenId",
          "type": "uint256"
        },
        {
          "internalType": "bytes",
          "name": "data",
          "type": "bytes"
        }
      ],
      "name": "safeTransferFrom",
      "outputs": [],
      "stateMutability": "nonpayable",
      "type": "function"
    },
    {
      "inputs": [
        {
          "internalType": "address",
          "name": "operator",
          "type": "address"
        },
        {
          "internalType": "bool",
          "name": "approved",
          "type": "bool"
        }
      ],
      "name": "setApprovalForAll",
      "outputs": [],
      "stateMutability": "nonpayable",
      "type": "function"
    },
    {
      "inputs": [
        {
          "internalType": "uint256",
          "name": "_startDate",
          "type": "uint256"
        },
        {
          "internalType": "uint256",
          "name": "_endDate",
          "type": "uint256"
        }
      ],
      "name": "setMintingPeriod",
      "outputs": [],
      "stateMutability": "nonpayable",
      "type": "function"
    },
    {
      "inputs": [
        {
          "internalType": "bytes4",
          "name": "interfaceId",
          "type": "bytes4"
        }
      ],
      "name": "supportsInterface",
      "outputs": [
        {
          "internalType": "bool",
          "name": "",
          "type": "bool"
        }
      ],
      "stateMutability": "view",
      "type": "function"
    },
    {
      "inputs": [],
      "name": "symbol",
      "outputs": [
        {
          "internalType": "string",
          "name": "",
          "type": "string"
        }
      ],
      "stateMutability": "view",
      "type": "function"
    },
    {
      "inputs": [
        {
          "internalType": "uint256",
          "name": "tokenId",
          "type": "uint256"
        }
      ],
      "name": "tokenURI",
      "outputs": [
        {
          "internalType": "string",
          "name": "",
          "type": "string"
        }
      ],
      "stateMutability": "view",
      "type": "function"
    },
    {
      "inputs": [],
      "name": "totalSupply",
      "outputs": [
        {
          "internalType": "uint256",
          "name": "",
          "type": "uint256"
        }
      ],
      "stateMutability": "view",
      "type": "function"
    },
    {
      "inputs": [
        {
          "internalType": "address",
          "name": "from",
          "type": "address"
        },
        {
          "internalType": "address",
          "name": "to",
          "type": "address"
        },
        {
          "internalType": "uint256",
          "name": "tokenId",
          "type": "uint256"
        }
      ],
      "name": "transferFrom",
      "outputs": [],
      "stateMutability": "nonpayable",
      "type": "function"
    },
    {
      "inputs": [
        {
          "internalType": "address",
          "name": "newOwner",
          "type": "address"
        }
      ],
      "name": "transferOwnership",
      "outputs": [],
      "stateMutability": "nonpayable",
      "type": "function"
    }
  ],
  "bytecode": "0x608060405234156200001057600080fd5b6200218d8038036200002281620001ec565b818382396060818383010312156200003957600080fd5b80519250604081015191505060ff81168082146200005657600080fd5b620000606200021f565b91506020682132b73d2a37b5b2b760b91b818401526200007f62000234565b64424e5a544b60d81b8183015283516001600160401b03811115620000a857620000a8620001ab565b6000620000c182620000bb835462000249565b62000286565b83601f831160018114620000f657828415620000dd5750878201515b600019600386901b1c1916600185901b1783556200015d565b60008052601f1984166000805160206200214d833981519152845b8281101562000132578a850151825593880193600190910190880162000111565b5085821015620001515789840151600019600388901b60f8161c191681555b505060018460011b0183555b505050506200016c8162000343565b5050620001793362000418565b6200018342600e55565b6200018d81600c55565b50506200019981600d55565b50604051611ce9806200046483398082f35b634e487b7160e01b600052604160045260246000fd5b604080519081016001600160401b0381118282101715620001e657620001e6620001ab565b60405290565b604051601f8201601f191681016001600160401b0381118282101715620002175762000217620001ab565b604052919050565b60006200022b620001c1565b90506009815290565b600062000240620001c1565b90506005815290565b600181811c908216806200025e57607f821691505b602082108114156200028057634e487b7160e01b600052602260045260246000fd5b50919050565b601f811115620002e05760008080526000805160206200214d833981519152601f840160051c81016020851015620002bb5750805b601f840160051c820191505b81811015620002dc57828155600101620002c7565b5050505b5050565b601f811115620002e057600160008181526000805160206200216d833981519152601f850160051c810160208610156200031b5750805b601f850160051c820191505b818110156200033b57828155830162000327565b505050505050565b80516001600160401b038111156200035f576200035f620001ab565b6001620003788262000372835462000249565b620002e4565b602080601f841160018114620003ae5760008515620003975750858301515b600019600387901b1c191685851b1784556200033b565b6001600052601f1985166000805160206200216d83398151915260005b82811015620003ea5788860151825594840194908601908401620003cb565b5086821015620004095787850151600019600389901b60f8161c191681555b505050505090811b8101905550565b60075460018060a01b0380831660018060a01b0319831617600755828183167f8be0079c531659141344cd1fd0a4f28419497f9722a3daafe3b4186f6b6457e06000604051a350505056fe604060808152600436106104c2576000803560e01c6301ffc9a7811461012c576306fdde03811461015c5763081812fc81146101885763095ea7b381146101b6576313faede681146101da576318160ddd81146101fa576323b872dd811461021a57633dfe2c498114610240576342842e0e8114610260576349b5fe1f81146102405763615fd9e2811461027e57636352211e81146102a5576370a0823181146102c05763715018a681146102e557638da5cb5b8114610305576395b1b6808114610331576395d89b4181146103515763a22cb465811461036c5763b88d4fde81146103895763c87b56dd81146103b15763d5abeb0181146103cc5763d9d6165581146103ec5763db4436ef81146104145763e985e9c581146104315763f2fde38b81146104a4576104bf565b3415610136578182fd5b607f1961015761014d610148366104e1565b611592565b151560805260a090565b016080f35b3415610166578182fd5b61016f36610507565b610177610be1565b8351806101848383610575565b0381f35b3415610192578182fd5b6101a361019e3661058f565b610e33565b83516001600160a01b0382168152602081f35b34156101c0578182fd5b6101c9366105ab565b6101d38183610d12565b5050818351f35b34156101e4578182fd5b6101ed36610507565b600d548351818152602081f35b3415610204578182fd5b61020d36610507565b6008548351818152602081f35b3415610224578182fd5b61022d366105e3565b610238818385610f7f565b505050818351f35b341561024a578182fd5b61025336610507565b600e548351818152602081f35b341561026a578182fd5b610273366105e3565b610238818385610fd2565b6102873661070d565b61029181836116ce565b915050835180610184838390815260200190565b34156102af578182fd5b6101a36102bb3661058f565b610b7e565b34156102ca578182fd5b6102db6102d63661077d565b610ab7565b8351818152602081f35b34156102ef578182fd5b6102f836610507565b610300610933565b818351f35b341561030f578182fd5b61031836610507565b60075483516001600160a01b0390911680825290602081f35b341561033b578182fd5b61034436610507565b600f548351818152602081f35b341561035b578182fd5b61036436610507565b610177610c87565b3415610376578182fd5b61037f366107a9565b6101d38183610e5f565b3415610393578182fd5b61039c366107f1565b6103a881838587610fea565b50505050818351f35b34156103bb578182fd5b6101776103c73661058f565b611473565b34156103d6578182fd5b6103df36610507565b600c548351818152602081f35b34156103f6578182fd5b6104076104023661077d565b611bbf565b8351806101848383610881565b341561041e578182fd5b610427366108c5565b6101d38183611447565b341561043b578182fd5b610444366108e7565b61048e61048782610469856001600160a01b0316600090815260056020526040902090565b6001600160a01b039190911660009081526020919091526040902090565b5460ff1690565b9150508351806101848383901515815260200190565b34156104ae578182fd5b6103006104ba3661077d565b6109e0565b50505b50600080fd5b6001600160e01b0319811681146104de57600080fd5b50565b60006020600319830112156104f557600080fd5b600435610501816104c8565b92915050565b6000600319820112156104de57600080fd5b60005b8381101561053457818101518382015260200161051c565b83811115610543576000848401525b50505050565b60008151808452610561816020860160208601610519565b601f01601f19169290920160200192915050565b6020815260006105886020830184610549565b9392505050565b60006020600319830112156105a357600080fd5b505060043590565b6000806040600319840112156105c057600080fd5b6004356001600160a01b03811681146105d857600080fd5b936024359350915050565b600080806060600319850112156105f957600080fd5b6004356001600160a01b03808216821461061257600080fd5b90935060243590808216821461062757600080fd5b50929492935050604435919050565b634e487b7160e01b600052604160045260246000fd5b6020810181811067ffffffffffffffff8211171561066c5761066c610636565b60405250565b601f8201601f1916810167ffffffffffffffff8111828210171561069857610698610636565b6040525050565b600067ffffffffffffffff8211156106b9576106b9610636565b50601f01601f191660200190565b60006106d28361069f565b6040516106df8282610672565b8092508481528585850111156106f457600080fd5b8484602083013760006020868301015250509392505050565b60008060406003198401121561072257600080fd5b6004356001600160a01b038116811461073a57600080fd5b915060243567ffffffffffffffff81111561075457600080fd5b83602382011261076357600080fd5b610775848260040135602484016106c7565b915050915091565b600060206003198301121561079157600080fd5b6004356001600160a01b038116811461050157600080fd5b6000806040600319840112156107be57600080fd5b6004356001600160a01b03811681146107d657600080fd5b915060243580151581146107e957600080fd5b919391925050565b600080808060806003198601121561080857600080fd5b6004356001600160a01b03808216821461082157600080fd5b90945060243590808216821461083657600080fd5b509250604435915060643567ffffffffffffffff81111561085657600080fd5b85602382011261086557600080fd5b610877868260040135602484016106c7565b9150509193509193565b6020808252825182820181905260009190848201906040850190845b818110156108b95783518352928401929184019160010161089d565b50909695505050505050565b6000806040600319840112156108da57600080fd5b5050600435916024359150565b6000806040600319840112156108fc57600080fd5b6004356001600160a01b03808216821461091557600080fd5b90925060243590808216821461092a57600080fd5b50919391925050565b61093b610988565b6007546bffffffffffffffffffffffff60a01b8116600755600060018060a01b0382167f8be0079c531659141344cd1fd0a4f28419497f9722a3daafe3b4186f6b6457e06000604051a350565b6007546001600160a01b03163381146104de5760405162461bcd60e51b815260206004820181905260248201527f4f776e61626c653a2063616c6c6572206973206e6f7420746865206f776e65726044820152606481fd5b6109e8610988565b6001600160a01b0381811680610a4c5760405162461bcd60e51b815260206004820152602660248201527f4f776e61626c653a206e6577206f776e657220697320746865207a65726f206160448201526564647265737360d01b6064820152608481fd5b600754816bffffffffffffffffffffffff60a01b821617600755838382167f8be0079c531659141344cd1fd0a4f28419497f9722a3daafe3b4186f6b6457e06000604051a350505050565b80546001600160a01b0319166001600160a01b0392909216919091179055565b60006001600160a01b03821680610b1f5760405162461bcd60e51b815260206004820152602960248201527f4552433732313a2061646472657373207a65726f206973206e6f7420612076616044820152683634b21037bbb732b960b91b6064820152608481fd5b60009081526003602052604090205492915050565b806104de5760405162461bcd60e51b815260206004820152601860248201527f4552433732313a20696e76616c696420746f6b656e20494400000000000000006044820152606481fd5b6000908152600260205260408120546001600160a01b0316610ba1811515610b34565b919050565b600181811c90821680610bba57607f821691505b60208210811415610bdb57634e487b7160e01b600052602260045260246000fd5b50919050565b60405160008054610bf181610ba6565b80845260018281168015610c0c5760018114610c2157610c73565b60ff1984166020870152604086019450610c73565b600080527f290decd9548b62a8d60345a988386fc84ba6bc95484008f6362f93160ef3e56360005b84811015610c6a5781546020828a0101528382019150602081019050610c49565b87016020019550505b50505050610c8382820383610672565b5090565b6040516001805460009190610c9b81610ba6565b8085528183168015610cb45760018114610cc957610c73565b60ff1983166020870152604086019450610c73565b836000527fb10e2d527612073b26eecdfd717e6a320cf44b4afac2b0732d9fcbe2b7fa0cf660005b83811015610c6a5781546020828a0101528582019150602081019050610cf1565b610d1b82610b7e565b6001600160a01b03818116838216811415610d7f5760405162461bcd60e51b815260206004820152602160248201527f4552433732313a20617070726f76616c20746f2063757272656e74206f776e656044820152603960f91b6064820152608481fd5b3314905080610db15760ff610dac33610469856001600160a01b0316600090815260056020526040902090565b541690505b80610e235760405162461bcd60e51b815260206004820152603d60248201527f4552433732313a20617070726f76652063616c6c6572206973206e6f7420746f60448201527f6b656e206f776e6572206f7220617070726f76656420666f7220616c6c00000060648201529150608482fd5b5050610e2f8282611276565b5050565b610e44610e3f826112c3565b610b34565b6000908152600460205260409020546001600160a01b031690565b336001600160a01b0382161415610eb55760405162461bcd60e51b815260206004820152601960248201527f4552433732313a20617070726f766520746f2063616c6c6572000000000000006044820152606481fd5b3360009081526005602090815260408083206001600160a01b0385168452909152902082151560ff1982541660ff8216811783555060405191508082525081337f17307eab39ab6107e8899845ad3d59bd9653f200f220920489ca2b5937696c31602084a3505050565b806104de5760405162461bcd60e51b815260206004820152602d60248201527f4552433732313a2063616c6c6572206973206e6f7420746f6b656e206f776e6560448201526c1c881bdc88185c1c1c9bdd9959609a1b6064820152608481fd5b610f91610f8c8433611081565b610f1f565b610f9c838383611144565b505050565b60006040516020810181811067ffffffffffffffff82111715610fc657610fc6610636565b60405260008152919050565b604051610fde8161064c565b60008152610543818585855b610ff7610f8c8433611081565b611002838383611144565b61100e84848484611377565b6105435760405162461bcd60e51b81528061102b6004820161102f565b0381fd5b60208082526032908201527f4552433732313a207472616e7366657220746f206e6f6e20455243373231526560408201527131b2b4bb32b91034b6b83632b6b2b73a32b960711b606082015260800190565b60006001600160a01b038061109585610b7e565b16818416818114806110c9575060008281526005602090815260408083206001600160a01b038916845290915290205460ff165b809250806110e15781846110dc89610e33565b161492505b509095945050505050565b806104de5760405162461bcd60e51b815260206004820152602560248201527f4552433732313a207472616e736665722066726f6d20696e636f72726563742060448201526437bbb732b960d91b6064820152608481fd5b61114d83610b7e565b6001600160a01b0382811661116583831682146110ec565b8185166111bf5760405162461bcd60e51b8152602060048201526024808201527f4552433732313a207472616e7366657220746f20746865207a65726f206164646044820152637265737360e01b60648201529250608483fd5b6111e1816111db6111cf89610b7e565b6001600160a01b031690565b146110ec565b505050600083815260046020908152604080832080546001600160a01b03191690556001600160a01b038481168452600383528184208054600019019055851683528083208054600101905585835260029091529020611247908390610a97565b610a97565b8282827fddf252ad1be2c89b69c2b068fc378daa952ba7f163c4a11628f55a4df523b3ef6000604051a4505050565b81600052600460205261128d816040600020610a97565b818161129884610b7e565b7f8c5be1e5ebec7d5bd14f71427d1e84f3dd0314c0f7b2291e5b200ac8c7c3b9256000604051a45050565b6000908152600260205260409020546001600160a01b0316151590565b6000602082840312156112f257600080fd5b8151610588816104c8565b6001600160a01b038281168252831660208201526040810184905260806060820181905260009061133090830187610549565b9695505050505050565b60003d801561136f573d61134d8161069f565b60405161135a8282610672565b8281528094503d6000602083013e5050505090565b606091505090565b6000823b15801590611439576001600160a01b038416803b61139857600080fd5b604051630a85bd0160e11b808252602082806113ba8c8c8b33600486016112fd565b03846000875af19250600083156113e4576113d53d84610672565b6113e13d8401846112e0565b90505b83158015611422576113f461133a565b9350835180156000811461141b5760405162461bcd60e51b81528061102b6004820161102f565b8186602001fd5b506001600160e01b03191614935061143f92505050565b60019150505b949350505050565b61144f610988565b600e55600f55565b60008151611469818560208601610519565b9290920192915050565b61147f610e3f826112c3565b6000808281526020600681526040822060405183825461149e81610ba6565b808452600182811680156114b957600181146114cd576114f8565b60ff198416868901526040860194506114f8565b868952878920895b848110156114f05781548882018b01529083019089016114d5565b870189019550505b5050505061150882820383610672565b50611511610fa1565b935083516115225795945050505050565b8051156115565760405191508161154461153e85850187611457565b83611457565b03601f19810183526110e18184610672565b505050506105018261156a610e3f826112c3565b5060006040516115798161064c565b600090526040516115898161064c565b60008152919050565b60006001600160e01b03198216632483248360e11b811480610588576380ac58cd60e01b8214806115c95750635b5e139f60e01b82145b80816115db57506301ffc9a760e01b83145b95945050505050565b806104de5760405162461bcd60e51b815260206004820152601260248201527113585e081cdd5c1c1b1e481c995858da195960721b6044820152606481fd5b60006040518251611638818360208701610519565b6009908201908152819003602001902092915050565b806104de5760405162461bcd60e51b815260206004820152601260248201527113919508185b1c9958591e48135a5b9d195960721b6044820152606481fd5b806104de5760405162461bcd60e51b8152602060048201526014602482015273125b9cdd59999a58da595b9d081c185e5b595b9d60621b6044820152606481fd5b6001600160a01b0381166000908152600b602052604081205460ff161561173e5760405162461bcd60e51b815260206004820152602160248201527f416464726573732068617320616c7265616479206d696e74656420616e204e466044820152601560fa1b6064820152608481fd5b60085461174e600c5482106115e4565b611764600161175c86611623565b54141561164e565b611772600d5434101561168d565b611780600160085401600855565b61179261178c85611623565b60019055565b61179c818461181f565b6117a68482611945565b6117cd816117c8856001600160a01b03166000908152600a6020526040902090565b611af1565b509392505050565b806104de5760405162461bcd60e51b815260206004820152601c60248201527f4552433732313a20746f6b656e20616c7265616479206d696e746564000000006044820152606481fd5b6001600160a01b0381166118725760405162461bcd60e51b815260206004820181905260248201527f4552433732313a206d696e7420746f20746865207a65726f20616464726573736044820152606481fd5b61188461187e836112c3565b156117d5565b61189061187e836112c3565b6001600160a01b0381166000908152600360205260409020805460010190556118c88161124284600090815260026020526040902090565b818160007fddf252ad1be2c89b69c2b068fc378daa952ba7f163c4a11628f55a4df523b3ef6000604051a45050565b601f821115610f9c57600081815260208120601f850160051c8101602086101561191e5750805b601f850160051c820191505b8181101561193d5782815560010161192a565b505050505050565b61194e816112c3565b6119ae5760405162461bcd60e51b815260206004820152602e60248201527f45524337323155524953746f726167653a2055524920736574206f66206e6f6e60448201526d32bc34b9ba32b73a103a37b5b2b760911b6064820152608481fd5b806000526020600681526040600020835167ffffffffffffffff8111156119d7576119d7610636565b6119eb816119e58454610ba6565b846118f7565b82601f821160018114611a1e5760008315611a065750868201515b600019600385901b1c1916600184901b178455611a77565b600084815260208120601f198516915b82811015611a4d57898501518255938701936001909101908701611a2e565b5084821015611a6b5788840151600019600387901b60f8161c191681555b505060018360011b0184555b50505050506040517ff8e1a15aba9398e019f0b49df1a4fde98ee17ae345cb5f6b5e2c27f5033e8ce781611aaf848490815260200190565b0382a1505050565b634e487b7160e01b600052603260045260246000fd5b60008082548410611ae057611ae0611ab7565b505060009081526020812090910191565b60006001820183600052806020526040600020541560008114611b70578354680100000000000000008110611b2857611b28610636565b600181018555611b388186611acd565b815460001960039290921b91821b80199091169189901b16179055505082546000858152602092909252604090912055506001610501565b506000949350505050565b600067ffffffffffffffff821115611b9557611b95610636565b5060051b60200190565b600081518310611bb157611bb1611ab7565b5060059190911b0160200190565b6001600160a01b0381166000908152600a60205260408120548190611be381611b7b565b604051611bf08282610672565b828152601f19611bff84611b7b565b013660208301378392505b6001600160a01b0386166000908152600a60205260409020548310611c2e576115db565b611c5583611c50886001600160a01b03166000908152600a6020526040902090565b611c89565b611c5f8483611b9f565b52600019831415611c7e57634e487b7160e01b84526011600452602484fd5b600183019250611c0a565b6000611c958383611acd565b905460039190911b1c939250505056fea36469706673582212201908e3364c16e1b83429263e0e0d5db3e4217bc78491b5fc8b3a1657b715375f6c6578706572696d656e74616cf564736f6c63430008090041290decd9548b62a8d60345a988386fc84ba6bc95484008f6362f93160ef3e563b10e2d527612073b26eecdfd717e6a320cf44b4afac2b0732d9fcbe2b7fa0cf6",
  "linkReferences": {},
  "deployedLinkReferences": {}
}